:100000000C942A000C943F000C943F000C943F0089
:100010000C943F000C943F000C943F000C943F0064
:100020000C943F000C943F000C943F000C943F0054
:100030000C943F000C943F000C943F000C943F0044
:100040000C943F000C943F000C943F000C943F0034
:100050000C943F0011241FBECFE5D8E0DEBFCDBF1A
:1000600010E0A0E6B0E0E4E5FAE202C005900D92EF
:10007000A836B107D9F70E94D7140C9428150C9410
:100080000000EF92FF920F931F937B018C0120E001
:1000900030E040E05FE40E94ED0388238CF0C8016B
:1000A000B70120E030E040E05FE40E94B9010E9427
:1000B0004D049B01AC01205030404040504806C0E8
:1000C000C801B7010E944D049B01AC01B901CA01EE
:1000D0001F910F91FF90EF900895A0E0B0E0E3E74B
:1000E000F0E00C94F114DC012B01FA019C919230A8
:1000F00008F439C1EB018881823008F433C19430AF
:1001000069F4843009F02FC111969C91119789816F
:10011000981709F428C1A0E6B0E025C1843009F49D
:1001200021C18230A9F4923009F01DC19A01AD01BC
:1001300088E0EA010990AE01E90109929E0181502F
:10014000C1F7E201898111969C918923818308C1BD
:10015000923009F407C112962D903C901397EB0151
:100160008A819B811496AD90BD90CD90DC901797BD
:10017000EC80FD800E811F819101281B390BB90194
:1001800037FF04C066277727621B730B6032710547
:100190000CF061C0121613066CF537014801062EEB
:1001A00004C096948794779467940A94D2F721E0D8
:1001B00030E040E050E004C0220F331F441F551FC1
:1001C0006A95D2F721503040404050402E213F21C7
:1001D00040235123211531054105510521F021E02E
:1001E00030E040E050E079018A01E628F72808294C
:1001F00019293CC0232BD1F1260E371E35014601AB
:10020000062E04C096948794779467940A94D2F744
:1002100021E030E040E050E004C0220F331F441FD3
:10022000551F6A95D2F721503040404050402A2156
:100230003B214C215D21211531054105510521F05E
:1002400021E030E040E050E059016A01A628B728DB
:10025000C828D9280BC0821593052CF01C01AA24AC
:10026000BB24650103C0EE24FF24870111969C91F5
:10027000D20111968C91981709F445C0992339F051
:10028000A80197012A193B094C095D0906C0A6017E
:1002900095012E193F09400B510B57FD08C01182E3
:1002A0003382228224833583468357831DC081E0B5
:1002B00081833382228288279927DC01821B930B5A
:1002C000A40BB50B84839583A683B7830DC0220F3F
:1002D000331F441F551F24833583468357838281F0
:1002E000938101979383828324813581468157814D
:1002F000DA01C9010197A109B1098F5F9F4FAF4F83
:10030000BF4328F30BC0918333822282EA0CFB1C8B
:100310000C1D1D1DE482F5820683178383E0808314
:10032000248135814681578157FF1AC0C901AA2708
:1003300097FDA095BA2F81709070A070B0705695FF
:10034000479537952795822B932BA42BB52B848328
:100350009583A683B7838281938101969383828359
:10036000DF0101C0D201CD01CDB7DEB7E2E10C94CF
:100370000D15A0E2B0E0EFEBF1E00C94FD14698301
:100380007A838B839C832D833E834F835887E9E058
:10039000EE2EF12CEC0EFD1ECE010196B7010E944F
:1003A00076058E010F5E1F4FCE010596B8010E94A3
:1003B00076058A8991E089278A8BC701B801AE0149
:1003C000475E5F4F0E946D000E94A104A096E6E088
:1003D0000C941915A0E2B0E0E0EFF1E00C94FD14EC
:1003E00069837A838B839C832D833E834F835887D5
:1003F000F9E0EF2EF12CEC0EFD1ECE010196B701B7
:100400000E9476058E010F5E1F4FCE010596B80142
:100410000E947605C701B801AE01475E5F4F0E949A
:100420006D000E94A104A096E6E00C941915A0E2CC
:10043000B0E0EDE1F2E00C94F11469837A838B83F0
:100440009C832D833E834F835887CE010196BE0146
:10045000675F7F4F0E947605CE010596BE016F5EF5
:100460007F4F0E9476059985923088F08989823085
:10047000C8F0943019F4823051F404C0843029F467
:10048000923081F480E690E0C6C0923049F420E0DA
:100490009A858A89981321E02A87CE010996BBC0E4
:1004A000823049F420E09A858A89981321E02A8BCA
:1004B000CE014196B0C02D843E844F8458886D880B
:1004C0007E888F88988CEE24FF248701AA24BB2481
:1004D000650140E050E060E070E0E0E0F0E0C10184
:1004E00081709070892BE9F0E60CF71C081D191D2E
:1004F0009A01AB012A0D3B1D4C1D5D1D80E090E073
:10050000A0E0B0E0E614F7040805190520F481E046
:1005100090E0A0E0B0E0BA01A901480F591F6A1F9E
:100520007B1FAA0CBB1CCC1CDD1C97FE08C081E005
:1005300090E0A0E0B0E0A82AB92ACA2ADB2A3196C6
:10054000E032F10549F0660C771C881C991C569422
:10055000479437942794C3CFFA85EA892B893C893D
:100560008B859C85280F391F2E5F3F4F17C0CA010E
:1005700081709070892B61F016950795F794E79438
:1005800080E090E0A0E0B0E8E82AF92A0A2B1B2BD3
:1005900076956795579547952F5F3F4F77FDE7CF46
:1005A0000CC0440F551F661F771F17FD4160EE0CEE
:1005B000FF1C001F111F21503040403090E05907B0
:1005C00090E0690790E4790760F32B8F3C8FDB01A3
:1005D000CA018F779070A070B07080349105A1052A
:1005E000B10561F447FD0AC0E114F10401051105EC
:1005F00029F0405C5F4F6F4F7F4F40781A8EFE1797
:1006000011F081E08A8F4D8F5E8F6F8F78A383E02A
:10061000898FCE0149960E94A104A096E2E10C9434
:100620000D15A8E1B0E0E7E1F3E00C94F91469835B
:100630007A838B839C832D833E834F835887B9E0D5
:10064000EB2EF12CEC0EFD1ECE010196B7010E949F
:1006500076058E010F5E1F4FCE010596B8010E94F0
:1006600076052985223008F47EC03989323010F4AD
:10067000B8017CC08A859A8989278A87243011F03D
:10068000223031F4231709F06EC060E670E06EC0CE
:10069000343039F41D861E861F86188A1C861B86F8
:1006A00004C0323021F484E08987B7015FC02B8514
:1006B0003C858B899C89281B390B3C872B87ED84D3
:1006C000FE840F851889AD88BE88CF88D88CEA143F
:1006D000FB040C051D0540F4EE0CFF1C001F111F50
:1006E000215030403C872B8720E030E040E050E054
:1006F00080E090E0A0E0B0E460E070E0EA14FB0489
:100700000C051D0540F0282B392B4A2B5B2BEA18D2
:10071000FB080C091D09B695A79597958795EE0CD2
:10072000FF1C001F111F6F5F7F4F6F31710531F785
:10073000DA01C9018F779070A070B0708034910594
:10074000A105B10561F427FD0AC0E114F10401051A
:10075000110529F0205C3F4F4F4F5F4F20782D87C8
:100760003E874F87588BBE01675F7F4FCB010E944A
:10077000A1046896EAE00C941515A8E1B0E0E3EC5A
:10078000F3E00C94FD1469837A838B839C832D831F
:100790003E834F83588789E0E82EF12CEC0EFD1E36
:1007A000CE010196B7010E9476058E010F5E1F4FA4
:1007B000CE010596B8010E9476058985823040F009
:1007C0008989823028F0C701B8010E94EE0501C076
:1007D0008FEF6896E6E00C941915A8E1B0E0E3EF1E
:1007E000F3E00C94FD1469837A838B839C832D83BF
:1007F0003E834F83588789E0E82EF12CEC0EFD1ED6
:10080000CE010196B7010E9476058E010F5E1F4F43
:10081000CE010596B8010E9476058985823040F0A8
:100820008989823028F0C701B8010E94EE0501C015
:100830008FEF6896E6E00C941915A8E1B0E0E3E2CA
:10084000F4E00C94FD1469837A838B839C832D835D
:100850003E834F83588789E0E82EF12CEC0EFD1E75
:10086000CE010196B7010E9476058E010F5E1F4FE3
:10087000CE010596B8010E9476058985823040F048
:100880008989823028F0C701B8010E94EE0501C0B5
:1008900081E06896E6E00C941915ACE0B0E0E3E581
:1008A000F4E00C94011569837A838B839C83CE01D9
:1008B0000196BE016B5F7F4F0E9476058D8182306D
:1008C00061F1823050F1843021F48E81882351F11E
:1008D0002EC02F81388537FD20C06E812F31310524
:1008E0001CF06623F9F023C08EE190E0821B930B8D
:1008F00029853A854B855C8504C056954795379583
:1009000027958A95D2F76623B1F05095409530959A
:1009100021953F4F4F4F5F4F0EC020E030E040E049
:1009200050E009C02FEF3FEF4FEF5FE704C020E03A
:1009300030E040E050E8B901CA012C96E2E00C94A6
:100940001D15DF92EF92FF920F931F93FC01E4803D
:10095000F58006811781D1808081823048F480E063
:1009600090E0A0E1B0E0E82AF92A0A2B1B2BA5C0F1
:10097000843009F49FC0823021F4EE24FF248701E3
:1009800005C0E114F1040105110519F4E0E0F0E0FF
:1009900096C0628173819FEF623879070CF05BC06B
:1009A00022E83FEF261B370B2A3131052CF020E0DF
:1009B00030E040E050E02AC0B801A701022E04C098
:1009C00076956795579547950A94D2F781E090E020
:1009D000A0E0B0E004C0880F991FAA1FBB1F2A9592
:1009E000D2F70197A109B1098E219F21A023B1233C
:1009F0000097A105B10521F081E090E0A0E0B0E012
:100A00009A01AB01282B392B4A2B5B2BDA01C90148
:100A10008F779070A070B07080349105A105B105FA
:100A200039F427FF09C0205C3F4F4F4F5F4F04C090
:100A3000215C3F4F4F4F5F4FE0E0F0E02030A0E0FF
:100A40003A07A0E04A07A0E45A0710F0E1E0F0E01E
:100A500079018A0127C06038710564F5FB01E1580E
:100A6000FF4FD801C7018F779070A070B0708034AD
:100A70009105A105B10539F4E7FE0DC080E490E0D1
:100A8000A0E0B0E004C08FE390E0A0E0B0E0E80EAA
:100A9000F91E0A1F1B1F17FF05C016950795F7942F
:100AA000E794319687E016950795F794E7948A9531
:100AB000D1F705C0EE24FF248701EFEFF0E06E2FA1
:100AC000679566276795902F9F77D794DD24D794F5
:100AD0008E2F8695492F462B582F5D29B701CA01C5
:100AE0001F910F91FF90EF90DF900895FC01DB01C3
:100AF000408151812281622F6F7770E0221F22276F
:100B0000221F9381892F880F822B282F30E0991F75
:100B10009927991F11969C93119721153105A9F5D5
:100B2000411551056105710511F482E037C082E875
:100B30009FEF13969C938E9312979A01AB0167E0F7
:100B4000220F331F441F551F6A95D1F783E08C9302
:100B50000DC0220F331F441F551F12968D919C917B
:100B60001397019713969C938E931297203080E0F1
:100B7000380780E0480780E4580758F314962D930F
:100B80003D934D935C93179708952F3F310579F46A
:100B9000411551056105710519F484E08C930895A0
:100BA00064FF03C081E08C9312C01C9210C02F57C9
:100BB000304013963C932E93129783E08C9387E0FA
:100BC000440F551F661F771F8A95D1F770641496DE
:100BD0004D935D936D937C93179708951F93DC015C
:100BE000FB019C91923008F447C08081823008F468
:100BF00043C0943051F411961C91843099F5818151
:100C0000682F70E0611B71093FC0843021F0923081
:100C100031F48230B9F18181882389F12DC0119698
:100C20001C9111978230F1F081811817D9F4129636
:100C30002D913C911397828193818217930794F0B1
:100C400028173907BCF014968D919D910D90BC9199
:100C5000A02D2481358146815781281739074A07FD
:100C60005B0718F4112341F00AC082179307A40709
:100C7000B50740F4112319F061E070E005C06FEF93
:100C80007FEF02C060E070E0CB011F910895DF9319
:100C9000CF9300D000D00F92CDB7DEB789836A839F
:100CA0004B838981843008F0DCC08A81883008F069
:100CB000D8C08B81813021F08B81882309F0D1C08D
:100CC0008981282F30E03D832C838C819D81813068
:100CD000910509F443C02C813D81223031052CF46B
:100CE0008C819D81009771F0BCC02C813D812230A8
:100CF000310509F45FC08C819D818330910509F431
:100D000085C0AFC08B818130A1F4AAE3B0E0EAE3F3
:100D1000F0E08081482F8A81282F30E081E090E048
:100D2000022E02C0880F991F0A94E2F7842B8C933D
:100D300098C0AAE3B0E0EAE3F0E08081482F8A811E
:100D4000282F30E081E090E0022E02C0880F991F2A
:100D50000A94E2F7809584238C9383C08B81813041
:100D6000A1F4A7E3B0E0E7E3F0E08081482F8A81B7
:100D7000282F30E081E090E0022E02C0880F991FFA
:100D80000A94E2F7842B8C936CC0A7E3B0E0E7E30E
:100D9000F0E08081482F8A81282F30E081E090E0C8
:100DA000022E02C0880F991F0A94E2F780958423CF
:100DB0008C9357C08B818130A1F4A4E3B0E0E4E3CD
:100DC000F0E08081482F8A81282F30E081E090E098
:100DD000022E02C0880F991F0A94E2F7842B8C938D
:100DE00040C0A4E3B0E0E4E3F0E08081482F8A81D2
:100DF000282F30E081E090E0022E02C0880F991F7A
:100E00000A94E2F7809584238C932BC08B818130E8
:100E1000A1F4A1E3B0E0E1E3F0E08081482F8A8112
:100E2000282F30E081E090E0022E02C0880F991F49
:100E30000A94E2F7842B8C9314C0A1E3B0E0E1E3C1
:100E4000F0E08081482F8A81282F30E081E090E017
:100E5000022E02C0880F991F0A94E2F7809584231E
:100E60008C930F900F900F900F900F90CF91DF9178
:100E70000895DF93CF9300D000D00F92CDB7DEB7A7
:100E800089836A834B838981843008F0DCC08A813E
:100E9000883008F0D8C08B81813021F08B81882385
:100EA00009F0D1C08981282F30E03D832C838C81CB
:100EB0009D818130910509F443C02C813D81223010
:100EC00031052CF48C819D81009771F0BCC02C8180
:100ED0003D812230310509F45FC08C819D818330D2
:100EE000910509F485C0AFC08B818130A1F4ABE3DB
:100EF000B0E0EBE3F0E08081482F8A81282F30E0DA
:100F000081E090E0022E02C0880F991F0A94E2F758
:100F1000842B8C9398C0ABE3B0E0EBE3F0E08081EE
:100F2000482F8A81282F30E081E090E0022E02C015
:100F3000880F991F0A94E2F7809584238C9383C0CD
:100F40008B818130A1F4A8E3B0E0E8E3F0E0808198
:100F5000482F8A81282F30E081E090E0022E02C0E5
:100F6000880F991F0A94E2F7842B8C936CC0A8E336
:100F7000B0E0E8E3F0E08081482F8A81282F30E05C
:100F800081E090E0022E02C0880F991F0A94E2F7D8
:100F9000809584238C9357C08B818130A1F4A5E385
:100FA000B0E0E5E3F0E08081482F8A81282F30E02F
:100FB00081E090E0022E02C0880F991F0A94E2F7A8
:100FC000842B8C9340C0A5E3B0E0E5E3F0E08081A2
:100FD000482F8A81282F30E081E090E0022E02C065
:100FE000880F991F0A94E2F7809584238C932BC075
:100FF0008B818130A1F4A2E3B0E0E2E3F0E08081F4
:10100000482F8A81282F30E081E090E0022E02C034
:10101000880F991F0A94E2F7842B8C9314C0A2E3E3
:10102000B0E0E2E3F0E08081482F8A81282F30E0B1
:1010300081E090E0022E02C0880F991F0A94E2F727
:10104000809584238C930F900F900F900F900F90AA
:10105000CF91DF910895DF93CF9300D000D0CDB72B
:10106000DEB789836A838981843008F072C08A81FF
:10107000883008F06EC08981282F30E03C832B83B4
:101080008B819C818130910549F12B813C812230FB
:1010900031052CF48B819C81009761F05AC02B8123
:1010A0003C812230310571F18B819C818330910527
:1010B000E9F14FC0ABE3B0E0EBE3F0E08081482F13
:1010C0008A81282F30E081E090E0022E02C0880F54
:1010D000991F0A94E2F784278C933BC0A8E3B0E001
:1010E000E8E3F0E08081482F8A81282F30E081E01A
:1010F00090E0022E02C0880F991F0A94E2F784271D
:101100008C9327C0A5E3B0E0E5E3F0E08081482FB1
:101110008A81282F30E081E090E0022E02C0880F03
:10112000991F0A94E2F784278C9313C0A2E3B0E0DE
:10113000E2E3F0E08081482F8A81282F30E081E0CF
:1011400090E0022E02C0880F991F0A94E2F78427CC
:101150008C930F900F900F900F90CF91DF91089587
:10116000DF93CF9300D000D000D0CDB7DEB7898316
:101170006A835C834B838981843008F079C08A81DB
:10118000883008F075C08B819C81009709F470C08D
:101190008981282F30E03E832D834D815E8141304F
:1011A000510559F18D819E818230910534F42D8154
:1011B0003E812115310569F05BC04D815E81423071
:1011C000510579F18D819E818330910509F43DC0EF
:1011D0004FC0E9E3F0E08081282F30E08A81882F3A
:1011E00090E0A90102C0559547958A95E2F7CA019A
:1011F0008170EB81FC8180833BC0E6E3F0E080817D
:10120000282F30E08A81882F90E0A90102C05595EF
:1012100047958A95E2F7CA018170EB81FC81808352
:1012200027C0E3E3F0E08081282F30E08A81882F17
:1012300090E0A90102C0559547958A95E2F7CA0149
:101240008170EB81FC81808313C0E0E3F0E080815A
:10125000282F30E08A81882F90E0A90102C055959F
:1012600047958A95E2F7CA018170EB81FC81808302
:1012700026960FB6F894DEBF0FBECDBFCF91DF919B
:101280000895DF93CF9300D000D0CDB7DEB7898328
:101290006A838981843008F072C08A81883008F0BE
:1012A0006EC08981282F30E03C832B838B819C8109
:1012B0008130910549F12B813C81223031052CF49C
:1012C0008B819C81009761F05AC02B813C81223038
:1012D000310571F18B819C8183309105E9F14FC01B
:1012E000ABE3B0E0EBE3F0E08081482F8A81282F68
:1012F00030E081E090E0022E02C0880F991F0A942E
:10130000E2F7842B8C933BC0A8E3B0E0E8E3F0E085
:101310008081482F8A81282F30E081E090E0022EE2
:1013200002C0880F991F0A94E2F7842B8C9327C080
:10133000A5E3B0E0E5E3F0E08081482F8A81282F23
:1013400030E081E090E0022E02C0880F991F0A94DD
:10135000E2F7842B8C9313C0A2E3B0E0E2E3F0E069
:101360008081482F8A81282F30E081E090E0022E92
:1013700002C0880F991F0A94E2F7842B8C930F9078
:101380000F900F900F90CF91DF910895DF93CF933F
:1013900000D000D0CDB7DEB789836A8389818430DD
:1013A00008F055C08A818F3F21F08A81882309F097
:1013B0004EC08981282F30E03C832B838B819C8118
:1013C0008130910509F12B813C81223031052CF4CB
:1013D0008B819C81009761F03AC02B813C81223047
:1013E0003105F1F08B819C818330910529F12FC06B
:1013F0008A818F3F29F4EAE3F0E08FEF808327C0F2
:10140000EAE3F0E0108223C08A818F3F29F4E7E30A
:10141000F0E08FEF80831BC0E7E3F0E0108217C09D
:101420008A818F3F29F4E4E3F0E08FEF80830FC0DF
:10143000E4E3F0E010820BC08A818F3F29F4E1E3FE
:10144000F0E08FEF808303C0E1E3F0E010820F90C3
:101450000F900F900F90CF91DF910895DF93CF936E
:1014600000D000D0CDB7DEB789836A83898184300C
:1014700090F58981282F30E03C832B838B819C81E0
:1014800081309105D1F02B813C81223031052CF443
:101490008B819C81009761F01EC02B813C812230A2
:1014A000310581F08B819C818330910581F013C0DF
:1014B000EBE3F0E08A8180830EC0E8E3F0E08A810C
:1014C000808309C0E5E3F0E08A81808304C0E2E321
:1014D000F0E08A8180830F900F900F900F90CF9152
:1014E000DF910895DF93CF9300D000D00F92CDB756
:1014F000DEB789837B836A838981843008F03EC0AC
:101500008A819B810097D1F18981282F30E03D832A
:101510002C838C819D8181309105E1F02C813D816E
:10152000223031052CF48C819D81009761F026C01A
:101530002C813D8122303105A1F08C819D81833049
:101540009105B1F01BC0E9E3F0E08081EA81FB8105
:10155000808314C0E6E3F0E08081EA81FB81808330
:101560000DC0E3E3F0E08081EA81FB81808306C067
:10157000E0E3F0E08081EA81FB8180830F900F90AF
:101580000F900F900F90CF91DF910895DF93CF933D
:1015900000D00F92CDB7DEB789838981843008F0FF
:1015A0003EC08981282F30E03B832A838A819B813A
:1015B00081309105E9F02A813B81223031052CF4FC
:1015C0008A819B81009761F02AC02A813B81223069
:1015D0003105B1F08A819B8183309105C9F01FC02C
:1015E000ABE3B0E0EBE3F0E0808180958C9317C033
:1015F000A8E3B0E0E8E3F0E0808180958C930FC031
:10160000A5E3B0E0E5E3F0E0808180958C9307C02E
:10161000A2E3B0E0E2E3F0E0808180958C930F904C
:101620000F900F90CF91DF910895DF93CF9300D06B
:101630000F92CDB7DEB789838981843090F5898197
:10164000282F30E03B832A838A819B81813091055A
:10165000D1F02A813B81223031052CF48A819B8193
:10166000009761F01EC02A813B812230310581F054
:101670008A819B818330910581F013C0EBE3F0E018
:101680008FEF80830EC0E8E3F0E08FEF808309C026
:10169000E5E3F0E08FEF808304C0E2E3F0E08FEF5A
:1016A00080830F900F900F90CF91DF910895DF937B
:1016B000CF93CDB7DEB70E949713CF91DF910895F6
:1016C000DF93CF93CDB7DEB762970FB6F894DEBF46
:1016D0000FBECDBF998B888B6A8B88899989892F9A
:1016E000992780658F870E94BE138F850E941B14E7
:1016F00088890E9487148A890E9487140E94061490
:1017000080E090E0A0EAB0E48B879C87AD87BE873D
:101710006B857C858D859E8520E030E04AE755E429
:101720000E941702DC01CB018F839887A987BA87B3
:101730006F81788589859A8520E030E040E85FE315
:101740000E941D0488232CF481E090E09E838D8309
:101750003FC06F81788589859A8520E03FEF4FE70C
:1017600057E40E94BD0318164CF56B857C858D856A
:101770009E8520E030E040E251E40E941702DC0147
:10178000CB01BC01CD010E944100DC01CB019E8355
:101790008D830FC080E991E09C838B838B819C813A
:1017A0000197F1F79C838B838D819E8101979E83A6
:1017B0008D838D819E81009769F714C06F81788534
:1017C00089859A850E944100DC01CB019E838D832F
:1017D0008D819E819A83898389819A810197F1F70E
:1017E0009A83898362960FB6F894DEBF0FBECDBF91
:1017F000CF91DF910895DF93CF93CDB7DEB7639795
:101800000FB6F894DEBF0FBECDBF998B888B7B8B54
:101810006A8B8A899B89009709F48BC0888999898A
:10182000892F992780658F870E94BE138F850E941C
:101830001B1488890E9487140E94E2138F850E94DE
:1018400051148A899B890E94AB140E94061480E07F
:1018500090E0A0EAB0E48B879C87AD87BE876B855C
:101860007C858D859E8520E030E04AE755E40E9426
:101870001702DC01CB018F839887A987BA876F8114
:10188000788589859A8520E030E040E85FE30E9412
:101890001D0488232CF481E090E09E838D833FC05B
:1018A0006F81788589859A8520E03FEF4FE757E47F
:1018B0000E94BD0318164CF56B857C858D859E8531
:1018C00020E030E040E251E40E941702DC01CB014D
:1018D000BC01CD010E944100DC01CB019E838D83C0
:1018E0000FC080E991E09C838B838B819C81019761
:1018F000F1F79C838B838D819E8101979E838D83DD
:101900008D819E81009769F714C06F8178858985E4
:101910009A850E944100DC01CB019E838D838D81DD
:101920009E819A83898389819A810197F1F79A83AD
:10193000898363960FB6F894DEBF0FBECDBFCF91FB
:10194000DF9108950F931F93DF93CF93CDB7DEB749
:10195000CA55D0400FB6F894DEBF0FBECDBF81E0B0
:1019600061E041E00E94470681E062E041E00E94C0
:10197000470681E063E041E00E94470680E064E0C2
:1019800041E00E94470680E065E041E00E94470692
:1019900080E066E041E00E94470680E067E041E0C9
:1019A0000E944706FE01E95AFF4F80E090E0ACE05C
:1019B000B2E480839183A283B3838E010D5A1F4FBB
:1019C000FE01E95AFF4F608171818281938120E09D
:1019D00030E04AE755E40E941702DC01CB01F80130
:1019E00080839183A283B383FE01ED5AFF4F608110
:1019F00071818281938120E030E040E85FE30E94C2
:101A00001D04882344F4FE01EF5AFF4F81E090E06B
:101A10009183808364C0FE01ED5AFF4F6081718124
:101A20008281938120E03FEF4FE757E40E94BD039E
:101A300018160CF043C0FE01E95AFF4F6081718116
:101A40008281938120E030E040E251E40E9417025D
:101A5000DC01CB018E010F5A1F4FBC01CD010E944A
:101A60004100DC01CB01F801918380831FC0FE019E
:101A7000E15BFF4F80E991E091838083FE01E15BB0
:101A8000FF4F808191810197F1F7FE01E15BFF4FEC
:101A900091838083DE01AF5ABF4FFE01EF5AFF4FA3
:101AA00080819181019711969C938E93FE01EF5A4C
:101AB000FF4F808191810097D1F627C08E010F5A88
:101AC0001F4FFE01ED5AFF4F60817181828193812A
:101AD0000E944100DC01CB01F80191838083DE018B
:101AE000A35BBF4FFE01EF5AFF4F808191818D9321
:101AF0009C93FE01E35BFF4F808191810197F1F799
:101B0000FE01E35BFF4F9183808381E061E040E071
:101B10000E94390781E062E040E00E94390782E0DC
:101B20000E943F1381E063E041E00E943907FE011B
:101B3000E75BFF4F80E090E0A0E8BFE38083918304
:101B4000A283B3838E010B5B1F4FFE01E75BFF4F48
:101B5000608171818281938120E030E04AE755E421
:101B60000E941702DC01CB01F80180839183A283DC
:101B7000B383FE01EB5BFF4F6081718182819381B2
:101B800020E030E040E85FE30E941D04882344F435
:101B9000FE01ED5BFF4F81E090E09183808364C0A4
:101BA000FE01EB5BFF4F608171818281938120E0B8
:101BB0003FEF4FE757E40E94BD0318160CF043C0F7
:101BC000FE01E75BFF4F608171818281938120E09C
:101BD00030E040E251E40E941702DC01CB018E01AB
:101BE0000D5B1F4FBC01CD010E944100DC01CB0108
:101BF000F801918380831FC0FE01EF5BFF4F80E9F6
:101C000091E091838083FE01EF5BFF4F80819181A2
:101C10000197F1F7FE01EF5BFF4F91838083DE01B7
:101C2000AD5BBF4FFE01ED5BFF4F8081918101975E
:101C300011969C938E93FE01ED5BFF4F8081918105
:101C40000097D1F624C08E010D5B1F4FFE01EB5BA8
:101C5000FF4F60817181828193810E944100DC018C
:101C6000CB01F80191838083FE01ED5BFF4F808102
:101C70009181FE01FF9691838083FE01FF96808112
:101C800091810197F1F7FE01FF969183808381E0B6
:101C900063E040E00E94390788E20E94521080E031
:101CA00090E0A4E3B2E48BAF9CAFADAFBEAF6BAD41
:101CB0007CAD8DAD9EAD2BEA3AEA4AEA50E40E9433
:101CC0001702DC01CB018FAB98AFA9AFBAAF6FA9F8
:101CD00078AD89AD9AAD20E030E040E85FE30E9446
:101CE0001D0488231CF481E08EAB91C06FA978ADF0
:101CF00089AD9AAD20E030E04FE753E40E94BD0388
:101D000018160CF07BC06BAD7CAD8DAD9EAD20E0A8
:101D100030E04AE754E40E941103DC01CB018AABB6
:101D20009BABACABBDAB6AA97BA98CA99DA920E0FC
:101D300030E04AE755E40E941702DC01CB018EA790
:101D40009FA7A8ABB9AB6EA57FA588A999A920E0EC
:101D500030E040E85FE30E941D0488232CF481E01A
:101D600090E09DA78CA73FC06EA57FA588A999A9E3
:101D700020E03FEF4FE757E40E94BD0318164CF5F3
:101D80006AA97BA98CA99DA920E030E040E251E43A
:101D90000E941702DC01CB01BC01CD010E94410071
:101DA000DC01CB019DA78CA70FC080E991E09BA728
:101DB0008AA78AA59BA50197F1F79BA78AA78CA55F
:101DC0009DA501979DA78CA78CA59DA5009769F758
:101DD00024C06EA57FA588A999A90E944100DC01B5
:101DE000CB019DA78CA78CA59DA599A788A788A5A1
:101DF00099A50197F1F799A788A70FC06FA978ADAA
:101E000089AD9AAD0E944100DC01CB018EAB8EA959
:101E10008FA38FA18A95F1F78FA38FE00E945210B4
:101E200080E090E0A4E3B2E48BA39CA3ADA3BEA3A7
:101E30006BA17CA18DA19EA12BEA3AEA4AEA50E46B
:101E40000E941702DC01CB018F8F98A3A9A3BAA32C
:101E50006F8D78A189A19AA120E030E040E85FE38E
:101E60000E941D0488231CF481E08E8F91C06F8D29
:101E700078A189A19AA120E030E04FE753E40E94C5
:101E8000BD0318160CF07BC06BA17CA18DA19EA197
:101E900020E030E04AE754E40E941103DC01CB016A
:101EA0008A8F9B8FAC8FBD8F6A8D7B8D8C8D9D8D26
:101EB00020E030E04AE755E40E941702DC01CB0144
:101EC0008E8B9F8BA88FB98F6E897F89888D998D16
:101ED00020E030E040E85FE30E941D0488232CF4FA
:101EE00081E090E09D8B8C8B3FC06E897F89888DCF
:101EF000998D20E03FEF4FE757E40E94BD0318168D
:101F00004CF56A8D7B8D8C8D9D8D20E030E040E21C
:101F100051E40E941702DC01CB01BC01CD010E94FB
:101F20004100DC01CB019D8B8C8B0FC080E991E0DF
:101F30009B8B8A8B8A899B890197F1F79B8B8A8B74
:101F40008C899D8901979D8B8C8B8C899D890097AD
:101F500069F724C06E897F89888D998D0E94410020
:101F6000DC01CB019D8B8C8B8C899D89998B888B17
:101F7000888999890197F1F7998B888B0FC06F8DAC
:101F800078A189A19AA10E944100DC01CB018E8F2A
:101F90008E8D8F878F858A95F1F78F8781E00E94DC
:101FA000521080E090E0A0E0B0E48B879C87AD8782
:101FB000BE876B857C858D859E8520E030E04AE775
:101FC00055E40E941702DC01CB018F839887A98713
:101FD000BA876F81788589859A8520E030E040E86E
:101FE0005FE30E941D0488232CF481E090E09E832F
:101FF0008D833FC06F81788589859A8520E03FEF8A
:102000004FE757E40E94BD0318164CF56B857C859D
:102010008D859E8520E030E040E251E40E94170269
:10202000DC01CB01BC01CD010E944100DC01CB01F0
:102030009E838D830FC080E991E09C838B838B818D
:102040009C810197F1F79C838B838D819E81019701
:102050009E838D838D819E81009769F714C06F8167
:10206000788589859A850E944100DC01CB019E8399
:102070008D838D819E819A83898389819A8101973D
:10208000F1F79A83898386E00E945210C65ADF4F87
:102090000FB6F894DEBF0FBECDBFCF91DF911F9179
:1020A0000F910895DF93CF93CDB7DEB76D970FB63D
:1020B000F894DEBF0FBECDBF8D8F81E061E040E0C0
:1020C0000E94390781E062E040E00E9439078D8D6F
:1020D00082958F700E943F1381E063E041E00E948F
:1020E000390780E090E0A0E8BFE3898F9A8FAB8F3B
:1020F000BC8F698D7A8D8B8D9C8D20E030E04AE716
:1021000055E40E941702DC01CB018D8B9E8BAF8BB7
:10211000B88F6D897E898F89988D20E030E040E806
:102120005FE30E941D0488232CF481E090E09C8BE7
:102130008B8B3FC06D897E898F89988D20E03FEF22
:102140004FE757E40E94BD0318164CF5698D7A8D50
:102150008B8D9C8D20E030E040E251E40E9417021C
:10216000DC01CB01BC01CD010E944100DC01CB01AF
:102170009C8B8B8B0FC080E991E09A8B898B89892E
:102180009A890197F1F79A8B898B8B899C890197A2
:102190009C8B8B8B8B899C89009769F714C06D8908
:1021A0007E898F89988D0E944100DC01CB019C8B38
:1021B0008B8B8B899C89988B8F878F8598890197CA
:1021C000F1F7988B8F8781E063E040E00E94390748
:1021D0008D8D0E943F1381E063E041E00E9439074A
:1021E00080E090E0A0E8BFE38B879C87AD87BE8747
:1021F0006B857C858D859E8520E030E04AE755E43F
:102200000E941702DC01CB018F839887A987BA87C8
:102210006F81788589859A8520E030E040E85FE32A
:102220000E941D0488232CF481E090E09E838D831E
:102230003FC06F81788589859A8520E03FEF4FE721
:1022400057E40E94BD0318164CF56B857C858D857F
:102250009E8520E030E040E251E40E941702DC015C
:10226000CB01BC01CD010E944100DC01CB019E836A
:102270008D830FC080E991E09C838B838B819C814F
:102280000197F1F79C838B838D819E8101979E83BB
:102290008D838D819E81009769F714C06F81788549
:1022A00089859A850E944100DC01CB019E838D8344
:1022B0008D819E819A83898389819A810197F1F723
:1022C0009A83898381E063E040E00E9439076D963C
:1022D0000FB6F894DEBF0FBECDBFCF91DF9108954A
:1022E000DF93CF93CDB7DEB76D970FB6F894DEBF0F
:1022F0000FBECDBF8D8F81E061E041E00E943907C4
:1023000081E062E040E00E9439078D8D82958F70F8
:102310000E943F1381E063E041E00E94390780E0C2
:1023200090E0A0E8BFE3898F9A8FAB8FBC8F698D57
:102330007A8D8B8D9C8D20E030E04AE755E40E9439
:102340001702DC01CB018D8B9E8BAF8BB88F6D8913
:102350007E898F89988D20E030E040E85FE30E941D
:102360001D0488232CF481E090E09C8B8B8B3FC074
:102370006D897E898F89988D20E03FEF4FE757E484
:102380000E94BD0318164CF5698D7A8D8B8D9C8D3E
:1023900020E030E040E251E40E941702DC01CB0172
:1023A000BC01CD010E944100DC01CB019C8B8B8BD9
:1023B0000FC080E991E09A8B898B89899A8901976E
:1023C000F1F79A8B898B8B899C8901979C8B8B8BDE
:1023D0008B899C89009769F714C06D897E898F89E4
:1023E000988D0E944100DC01CB019C8B8B8B8B89EB
:1023F0009C89988B8F878F8598890197F1F7988BA7
:102400008F8781E063E040E00E9439078D8D0E9454
:102410003F1381E063E041E00E94390780E090E0F3
:10242000A0E8BFE38B879C87AD87BE876B857C85E3
:102430008D859E8520E030E04AE755E40E94170232
:10244000DC01CB018F839887A987BA876F81788554
:1024500089859A8520E030E040E85FE30E941D0412
:1024600088232CF481E090E09E838D833FC06F81B0
:10247000788589859A8520E03FEF4FE757E40E94F1
:10248000BD0318164CF56B857C858D859E8520E0F7
:1024900030E040E251E40E941702DC01CB01BC01B4
:1024A000CD010E944100DC01CB019E838D830FC0D2
:1024B00080E991E09C838B838B819C810197F1F76C
:1024C0009C838B838D819E8101979E838D838D81DB
:1024D0009E81009769F714C06F81788589859A85F8
:1024E0000E944100DC01CB019E838D838D819E8102
:1024F0009A83898389819A810197F1F79A838983E5
:1025000081E063E040E00E9439076D960FB6F894D1
:10251000DEBF0FBECDBFCF91DF910895DF93CF9384
:1025200000D00F92CDB7DEB79B838A8319820EC08D
:102530008981282F30E08A819B81FC01E20FF31F03
:1025400080810E94701189818F5F89838981282F02
:1025500030E08A819B81FC01E20FF31F8081882398
:1025600039F70F900F900F90CF91DF910895DF937F
:10257000CF93CDB7DEB72E970FB6F894DEBF0FBE60
:10258000CDBF81E00E94521080E090E0A0E0B0E476
:102590008B879C87AD87BE876B857C858D859E8567
:1025A00020E030E04AE755E40E941702DC01CB014D
:1025B0008F839887A987BA876F81788589859A855F
:1025C00020E030E040E85FE30E941D0488232CF403
:1025D00081E090E09E838D833FC06F8178858985FF
:1025E0009A8520E03FEF4FE757E40E94BD0318169D
:1025F0004CF56B857C858D859E8520E030E040E242
:1026000051E40E941702DC01CB01BC01CD010E9404
:102610004100DC01CB019E838D830FC080E991E0F6
:102620009C838B838B819C810197F1F79C838B83A7
:102630008D819E8101979E838D838D819E810097E0
:1026400069F714C06F81788589859A850E94410059
:10265000DC01CB019E838D838D819E819A8389834A
:1026600089819A810197F1F79A8389832E960FB613
:10267000F894DEBF0FBECDBFCF91DF910895DF93F9
:10268000CF930F92CDB7DEB789838981882F90E0F1
:1026900081709070882331F080E064E041E00E9416
:1026A000390705C080E064E040E00E943907898175
:1026B0008695882F90E081709070882331F080E0BB
:1026C00065E041E00E94390705C080E065E040E038
:1026D0000E943907898186958695882F90E08170C0
:1026E0009070882331F080E066E041E00E94390775
:1026F00005C080E066E040E00E9439078981869548
:1027000086958695882F90E081709070882331F0AF
:1027100080E067E041E00E94390705C080E067E0A3
:1027200040E00E9439070F90CF91DF910895DF9329
:10273000CF93CDB7DEB7A1E2B0E0E1E2F0E0808177
:102740008E7F8C93A1E2B0E0E1E2F0E080818D7FAA
:102750008C93E0E2F0E08CE08083A6E5B0E0E6E573
:10276000F0E0808180648C93A6E5B0E0E6E5F0E0DF
:10277000808184608C93CF91DF910895DF93CF9314
:10278000CDB7DEB7A6E5B0E0E6E5F0E08081806297
:102790008C93A6E5B0E0E6E5F0E0808180688C935C
:1027A000E6E5F0E080818823DCF7E1E2F0E080817B
:1027B000882F90E0887F907088309105B1F7CF9195
:1027C000DF910895DF93CF93CDB7DEB7A6E5B0E0F4
:1027D000E6E5F0E0808180628C93A6E5B0E0E6E576
:1027E000F0E0808180688C93E6E5F0E080818823CA
:1027F000DCF7E1E2F0E08081882F90E0887F907044
:1028000080319105B1F7CF91DF910895DF93CF9398
:10281000CDB7DEB7A6E5B0E0E6E5F0E08081806107
:102820008C93A6E5B0E0E6E5F0E0808180688C93CB
:10283000CF91DF910895DF93CF930F92CDB7DEB79D
:102840008983898188234CF1E3E2F0E08981880F54
:102850008083A3E2B0E0E3E2F0E080818E7F8C939E
:10286000A6E5B0E0E6E5F0E080818F7D8C93A6E5FB
:10287000B0E0E6E5F0E0808180688C93E6E5F0E08A
:1028800080818823DCF7E1E2F0E08081882F90E00E
:10289000887F907088319105B1F70F90CF91DF91CB
:1028A0000895DF93CF930F92CDB7DEB789838981E7
:1028B00088234CF1E3E2F0E08981880F8083A3E272
:1028C000B0E0E3E2F0E0808181608C93A6E5B0E0C7
:1028D000E6E5F0E080818F7D8C93A6E5B0E0E6E54B
:1028E000F0E0808180688C93E6E5F0E080818823C9
:1028F000DCF7E1E2F0E08081882F90E0887F907043
:1029000080349105B1F70F90CF91DF910895DF9357
:10291000CF930F92CDB7DEB78983E3E2F0E08981F0
:102920008083A6E5B0E0E6E5F0E0808180688C93E6
:10293000E6E5F0E080818823DCF7E1E2F0E08081E9
:10294000882F90E0887F907088329105B1F70F90C2
:10295000CF91DF910895DF93CF9300D0CDB7DEB74D
:102960009A83898389819A810097E1F0A6E5B0E096
:10297000E6E5F0E0808180688C93E6E5F0E0808118
:102980008823DCF7E1E2F0E08081882F90E0887F07
:10299000907080359105B1F7E3E2F0E08081E98144
:1029A000FA8180830F900F90CF91DF910895DF938C
:1029B000CF930F92CDB7DEB70E94A20C0E94570BA7
:1029C00088EC90E064E40E94600B88EC90E09E014B
:1029D0002F5F3F4FB9010E94FB0B89810E9470114C
:1029E000FFCF2F923F924F925F926F927F928F9282
:1029F0009F92AF92BF92CF92DF92EF92FF920F938E
:102A00001F93CF93DF93CDB7DEB7CA1BDB0B0FB697
:102A1000F894DEBF0FBECDBF09942A883988488854
:102A20005F846E847D848C849B84AA84B984C884EA
:102A3000DF80EE80FD800C811B81AA81B981CE0FE1
:102A4000D11D0FB6F894DEBF0FBECDBFED010895C6
:042A5000F894FFCF28
:082A540000000000000000007A
:00000001FF
