:020000040800F2
:1000000000000120C5020008CB020008CF02000852
:1000100041030008450300088D03000800000000AC
:10002000000000000000000000000000D5030008F0
:10003000D903000800000000DD030008C91600080D
:10004000F1030008F1030008F1030008F1030008C0
:10005000F1030008F10300083D1100085D110008DC
:100060007D1100089D110008BD110008F103000872
:10007000F1030008F1030008F1030008F103000890
:10008000F1030008F1030008F1030008000000007C
:10009000000000000000000000000000DD1100086A
:1000A000F1030008F1030008F1030008F103000860
:1000B000F1030008F1030008F1030008F103000850
:1000C000F1030008F1030008F1030008F103000840
:1000D000F1030008F1030008F1030008000000002C
:1000E000F1030008F1030008F1030008000000001C
:1000F000000000000000000000000000F103000804
:1001000000000000F1030008F1030008F1030008FB
:1001100000000000000000000000000000000000DF
:10012000F1030008F1030008F1030008F1030008DF
:10013000F1030008000000000000000000000000C3
:10014000000000000000000000000000F1030008B3
:10015000F1030008F1030008F1030008F1030008AF
:10016000F1030008F1030008000000000000000097
:10017000000000000000000000000000000000007F
:1001800000000000F1030008000000000000000073
:10019000F103000800B583B000F046FE384B394A41
:1001A0001360394A1360394900E02146384B9942BF
:1001B0000BD20A684B6801F10C0488689842F4D9A4
:1001C0001168196004330432F8E72E4B1A68314B7A
:1001D0009A4200D0FEE72C4B1A682F4B9A42F9D175
:1001E000274B2E4A13602E4A13602E4B05E0002049
:1001F000106004329342FAD80B462B4A934204D241
:10020000194651F8082B5B68F4E7244B1B6813B9B7
:10021000234B1B6803B1FEE701F05AFB694601A8B6
:1002200000F094FD214C224BE41AA4100025AC42AE
:1002300014DC204C204BE41AA4100025AC4213DC43
:100240000099019801F0E0FB05461C4C1C4BE41A98
:10025000A410002C0EDC284600F04AFD144B53F885
:10026000253098470135E2E7134B53F8253098477E
:100270000135E3E7013C124B53F824309847E8E797
:10028000BABADECA0000002074A00020F4030008FF
:100290000C040008785634123254769878A0002066
:1002A000ECA200200C0400081C0400081C04000838
:1002B0001C0400081C0400081C0400081C0400089E
:1002C0001C04000808B5FFF765FF00BEFEE71EF03E
:1002D000040F0CBFEFF30880EFF309807146414A29
:1002E00010472DE9F04182B004468846124B5E6B00
:1002F0009F6B9D6A1B6B13F0020F03D00E4BDB6AE2
:10030000002B0CDB0D4800F033FDCDF800803B46A0
:1003100032462946204600F093FD00BEFEE74BF62C
:10032000AB6100F007FE0028ECD0034B4FF0004219
:10033000DA6202B0BDE8F08100ED00E0F8250008C7
:1003400000BEFEE71EF0040F0CBFEFF30880EFF3D2
:1003500009807146244A10472DE9F04182B00446D5
:100360008846084B5E6B9F6B9D6A074800F000FD56
:10037000CDF800803B4632462946204600F060FD1D
:1003800000BEFEE700ED00E0082600081EF0040FA6
:100390000CBFEFF30880EFF309807146134A104752
:1003A0002DE9F04182B004468846084B5E6B9F6B96
:1003B0009D6A074800F0DCFCCDF800803B463246E1
:1003C0002946204600F03CFD00BEFEE700ED00E0BF
:1003D0001426000800BEFEE700BEFEE700BEFEE7F2
:1003E00070470000E302000859030008A103000859
:0403F00000BEFEE766
:1003F400682600080000002078A000206826000875
:10040400000000100000001078A00020F0A20020DE
:080414000000001000000010C0
:1004200010B50446074B1868074BA3FB0030800942
:1004300000F090F8002221464FF0FF3000F044F821
:10044000002010BD0C000020D34D621008B50B4BEE
:100450001A6842F400721A601A6842F480621A60E4
:100460001A6842F480721A60032000F00FF80F201F
:10047000FFF7D6FF01F05AFB002008BD003C024008
:10048000014B1868704700BF54A1002010B5044606
:10049000C31E042B0FD80A4AD36823F4E0631B045D
:1004A0001B0C240204F4E064234343F0BF6343F4D1
:1004B0000033D36010BDA421024800F04FFCEAE7EE
:1004C00000ED00E02824000870B505460C461646ED
:1004D0000F2A25D80F2C28D81B4BDB68C3F3022327
:1004E000C3F10702042A28BF0422191D062921D9B5
:1004F000033B4FF0FF3101FA02F224EA02049C4070
:1005000001FA03F326EA03063443002D14DB240129
:10051000E4B205F1604505F5614585F8004370BD1D
:10052000BC210A4800F01AFCD4E7BD21074800F0BE
:1005300015FCD1E70023DCE705F00F052401E4B248
:10054000034B5C55EBE700BF00ED00E028240008FA
:1005500014ED00E00138B0F1807F0AD2064B5860FC
:10056000064AF02182F823100020986007221A60C2
:1005700070470120704700BF10E000E000ED00E090
:1005800010B50446042800D038B9042C0BD0094A11
:10059000136823F00403136010BD40F2B311064842
:1005A00000F0DCFBF1E7034A136843F00403136037
:1005B000F2E700BF10E000E02824000830B583B067
:1005C000044603680F2B29D8236813F0010F3DD090
:1005D0006368012B01D9052B25D1A34B9B6803F040
:1005E0000C03042B29D0A04B9B6803F00C03082BB1
:1005F0001ED022799D4B1A706368002B50D0FFF7F4
:100600003FFF0546984B1B6813F4003F1ED1FFF7D0
:1006100037FF401B6428F5D90320E3E1F521944816
:1006200000F09CFBD0E7FA21914800F097FBD4E75B
:100630008D4B5B6813F4800FDBD08B4B1B6813F47E
:10064000003F03D06368002B00F0C981236813F0DA
:10065000020F5DD0E368012B31D823691F2B34D8FA
:10066000814B9B6813F00C0F3AD07F4B9B6803F0D3
:100670000C03082B2FD0E368002B74D07D4B012294
:100680001A60FFF7FDFE0546774B1B6813F0020F5B
:100690005AD1FFF7F5FE401B0228F5D90320A1E14E
:1006A000FFF7EEFE0546704B1B6813F4003FCDD0FC
:1006B000FFF7E6FE401B6428F5D9032092E14FF4D2
:1006C00096716B4800F04AFBC7E740F22D1168486D
:1006D00000F044FBC4E7644B5B6813F4800FCAD19D
:1006E000614B1B6813F0020F04D0E368012B01D0AB
:1006F000012077E15C48036823F0F8032169F822C0
:1007000092FAA2F2B2FA82F201FA02F21343036001
:10071000236813F0080F50D06369012B35D8636943
:10072000002B38D0544B01221A60FFF7A9FE054672
:100730004D4B5B6F13F0020F3FD1FFF7A1FE401B43
:100740000228F5D903204DE14748036823F0F80358
:100750002169F82292FAA2F2B2FA82F201FA02F2C6
:1007600013430360D4E7434B00221A60FFF788FE6F
:1007700005463D4B1B6813F0020FC9D0FFF780FE02
:10078000401B0228F5D903202CE140F26D113848B6
:1007900000F0E4FAC3E7384B00221A60FFF770FE5E
:1007A0000546314B5B6F13F0020F06D0FFF768FE72
:1007B000401B0228F5D9032014E1236813F0040F2D
:1007C00060D0A368012B01D9052B1FD10023019311
:1007D000254B1A6C42F080521A641B6C03F0805354
:1007E0000193019B254A136843F480731360FFF75C
:1007F00047FE0546214B1B6813F4807F0CD1FFF7A1
:100800003FFE401B0228F5D90320EBE040F2971190
:10081000174800F0A3FAD9E7227A194B1A70A36897
:1008200083B1FFF72DFE05460F4B1B6F13F0020F30
:1008300028D1FFF725FE401B41F288339842F3D9B7
:100840000320CFE0FFF71CFE0546074B1B6F13F09C
:10085000020F17D0FFF714FE401B41F28833984275
:10086000F3D90320BEE000BF003802400238024046
:100870006C24000800004742800E47420070004090
:1008800070380240A369022B39D8A369002B00F00D
:10089000A880564A926802F00C02082A00F0A48050
:1008A000022B40F08880E36913B1B3F5800F2CD19F
:1008B000236A3F2B2FD8636A323BB3F5BF7F30D812
:1008C000A36A022B05D0042B03D0062B01D0082BE2
:1008D0002DD1E36A043B0B2B2FD8454B00221A6025
:1008E000FFF7CEFD0546414B1B6813F0007F2AD071
:1008F000FFF7C6FD401B0228F5D9032072E04FF434
:10090000E6713C4800F02AFABFE740F2D5113948B9
:1009100000F024FACCE74FF4EB71364800F01EFAF1
:10092000C9E740F2D711334800F018FAC8E74FF48E
:10093000EC71304800F012FACBE740F2D9112D48A3
:1009400000F00CFAC9E7E369226A1343616A47F6CB
:10095000C07292FAA2F2B2FA82F201FA02F21343E0
:10096000A26A5208013A4FF4403191FAA1F1B1FA6A
:1009700081F18A401343E16A4FF0706292FAA2F269
:10098000B2FA82F201FA02F21343184A5360184B8A
:1009900001221A60FFF774FD0446144B1B6813F024
:1009A000007F06D1FFF76CFD001B0228F5D903205C
:1009B00018E0002016E00E4B00221A60FFF760FDE1
:1009C00004460A4B1B6813F0007F06D0FFF758FD62
:1009D000001B0228F5D9032004E0002002E00120DA
:1009E00000E0002003B030BD0120FBE700380240EA
:1009F000600047426C240008214B9B6803F00C0305
:100A0000042B3AD0082B01D01E4870471C4B586865
:100A100000F03F005B6813F4800F1ED01A4AB2FB4F
:100A2000F0F2174B586847F6C073184093FAA3F3D7
:100A3000B3FA83F3D84000FB02F0114B5B6803F478
:100A400040334FF4403292FAA2F2B2FA82F2D3402B
:100A500001335B00B0FBF3F070470A4AB2FBF0F2DF
:100A6000074B586847F6C073184093FAA3F3B3FADC
:100A700083F3D84000FB02F0DFE70348704700BF74
:100A8000003802400024F40040787D0170B504462F
:100A90000D460368013B0E2B11D8072D15D88C4B42
:100AA0001B6803F00F03AB4215D2EBB2884A1370F8
:100AB000136803F00F03AB420DD0012070BD40F26C
:100AC0003721844800F04AF9E7E74FF40E71814876
:100AD00000F044F9E3E7236813F0020F18D0A3688D
:100AE0007BB1802B0DD0902B0BD0A02B09D0B02B3D
:100AF00007D0C02B05D0D02B03D0E02B01D0F02B9A
:100B000037D1754A936823F0F003A1680B439360D3
:100B1000236813F0010F73D06368032B2FD8636829
:100B2000012B32D09A1E012A36D96B4A126812F074
:100B3000020F00F0CA8068498A6822F0030213435A
:100B40008B60FFF79DFC06466368012B2BD0022BC0
:100B500038D0032B45D0604B9B6813F00C0F4FD05F
:100B6000FFF78EFC801B41F288339842F3D90320B3
:100B7000A4E740F24F21574800F0F0F8C1E740F2F7
:100B80005621544800F0EAF8C9E7534A126812F4B3
:100B9000003FD0D1012091E74F4A126812F0007F48
:100BA000C9D101208AE74C4B9B6803F00C03042B4E
:100BB00026D0FFF765FC801B41F288339842F2D9BA
:100BC00003207BE7444B9B6803F00C03082B17D0F2
:100BD000FFF756FC801B41F288339842F2D903207C
:100BE0006CE73D4B9B6803F00C030C2B08D0FFF720
:100BF00047FC801B41F288339842F2D903205DE71D
:100C0000334B1B6803F00F03AB4209D9EAB2304BF8
:100C10001A701B6803F00F03AB4201D001204DE7AF
:100C2000236813F0040F14D0E3685BB1B3F5805F61
:100C300008D0B3F5A05F05D0B3F5C05F02D0B3F51F
:100C4000E05F36D1244A936823F4E053E1680B4314
:100C50009360236813F0080F15D023695BB1B3F5D7
:100C6000805F08D0B3F5A05F05D0B3F5C05F02D0B8
:100C7000B3F5E05F23D1184A936823F460432169F8
:100C800043EAC1039360FFF7B7FE134B9B6803F081
:100C9000F003F02292FAA2F2B2FA82F2D3400F4AA3
:100CA000D35CD8400E4B18600F20FFF7B9FB002033
:100CB00004E74FF42D71074800F050F8C2E740F206
:100CC000BB21044800F04AF8D5E70120F6E600BF52
:100CD000003C02406C240008003802405C240008FC
:100CE0000C000020014B1868704700BF0C0000206A
:100CF000FEE7000008B5034800F052F80120FFF7B6
:100D0000F7FF00BF9C24000808B503460C4A126890
:100D10005AB10B4A1068033323F003030344094A12
:100D2000934206D8064A136008BD054A0649116079
:100D3000EFE700F0FDFE0C2303604FF0FF30F3E718
:100D40007CA0002000FC0020F0A200200123036012
:100D5000014B0B60704700BF0400002008B50A4635
:100D60000146024800F004F8FFF7C4FFB024000871
:100D70000FB400B583B004AB53F8042B019380216A
:100D8000064800F00FFF002803DD0146034800F08D
:100D900047F803B05DF804EB04B0704784A000206E
:100DA00010B5044600F0CAFE0146204600F038F8AF
:100DB0000121024800F034F810BD00BF742500087E
:100DC0002DE9F04385B004460F4643560BB10E465D
:100DD0001EE0042528462146ABBE0446384605B031
:100DE000BDE8F08314F9011B04AA1A4402F8101C90
:100DF0000133AB42F6D304AA1344002203F8102CAB
:100E00004FF00408E94640464946ABBE8046761B93
:100E1000002EE3D03546102E28BF10250023E8E72A
:100E200008B5FFF7CDFF08BD08B500F093F8024AFA
:100E3000024B9A6008BD00BF0000000800ED00E012
:100E4000F8B504460D4617461E462748FFF790FFA3
:100E500021682648FFF78CFF61682548FFF788FF67
:100E6000A1682448FFF784FFE1682348FFF780FF6B
:100E700021692248FFF77CFF61692148FFF778FF6D
:100E8000A1692048FFF774FFE1691F48FFF770FF71
:100E90001E48FFF76DFF29461D48FFF769FF1D4CEF
:100EA000E16A1D48FFF764FF216B1C48FFF760FFF4
:100EB000E16B1B48FFF75CFF15F0800F0AD115F4BA
:100EC000004F0CD11748FFF753FF06991648FFF75C
:100ED0004FFFF8BD39461548FFF74AFFEFE73146A7
:100EE0001348FFF745FFEDE7DC240008EC24000879
:100EF000FC2400080C2500081C2500082C250008EF
:100F00003C2500084C2500085C2500086C250008DD
:100F10007825000800ED00E08825000898250008E5
:100F2000A8250008D8250008E0250008B8250008F5
:100F3000C825000883691A888A4201D000207047BA
:100F40000268033A012A03D8023383610120704703
:100F5000002070470C4B1A6842F001021A60002111
:100F600099601A6822F0847222F480321A60074A6B
:100F70005A601A6822F480221A60D960044B4FF03C
:100F800000629A60704700BF0038024010300024B1
:100F900000ED00E0224B9B6803F00C03042B14D0FF
:100FA000082B16D01BB11F4B1F4A1A6002E01D4BC5
:100FB0001D4A1A601A4B9B68C3F303131B4AD15C8A
:100FC000184A1368CB4013607047164B184A1A60D2
:100FD000F0E7134B5A685B6803F03F0312F4800F8D
:100FE00013D0134AB2FBF3F20D4B5B68C3F38813C3
:100FF00003FB02F30A4A5268C2F301420132520073
:10100000B3FBF2F3074A1360D4E7074AB2FBF3F2EB
:10101000034B5B68C3F3881303FB02F3EAE700BFEB
:10102000003802400C0000200024F40024260008B0
:1010300040787D0103490B68012202FA00F0034366
:101040000B607047003C014001290FD011B102290B
:1010500018D07047114BD968012202FA00F021EA3A
:101060000001D9609A681043986070470B4B9968EB
:10107000012202FA00F021EA00019960DA681043C7
:10108000D8607047054A9168012303FA00F00143D4
:101090009160D3681843D060704700BF003C0140A6
:1010A0000F2848D8DFE800F0080C1014181C202482
:1010B000282C3034383C40441F4B43F820107047F4
:1010C0001D4B43F8201070471B4B43F8201070470E
:1010D000194B43F820107047174B43F82010704706
:1010E000154B43F820107047134B43F820107047FE
:1010F000114B43F8201070470F4B43F820107047F6
:101100000D4B43F8201070470B4B43F820107047ED
:10111000094B43F820107047074B43F820107047E5
:10112000054B43F820107047034B43F820107047DD
:10113000014B43F82010704704A1002008B5054B6F
:101140001B6803B19847044A536943F00103536194
:1011500008BD00BF04A10020003C014008B5054BBC
:101160005B6803B19847044A536943F00103536134
:1011700008BD00BF04A10020003C014008B5054B9C
:101180009B6803B19847044A536943F001035361D4
:1011900008BD00BF04A10020003C014008B5054B7C
:1011A000DB6803B19847044A536943F00103536174
:1011B00008BD00BF04A10020003C014008B5054B5C
:1011C0001B6903B19847044A536943F00103536113
:1011D00008BD00BF04A10020003C014008B50D4B34
:1011E0005B690BB1984708BD0A4B9B690BB19847E7
:1011F000F9E7084BDB690BB19847F4E7054B1B6A2D
:101200000BB19847EFE7034B5B6A002BEBD0984795
:10121000E9E700BF04A1002010B4012812D018B1E2
:1012200002281DD010BC7047144B186849000324D5
:101230008C4020EA04001860186802FA01F10143AA
:101240001960EFE70E4B1868490003248C4020EA30
:1012500004001860186802FA01F101431960E1E71F
:10126000084B1868490003248C4020EA04001860E9
:10127000186802FA01F101431960D3E70000024047
:10128000000402400008024010B4012812D018B136
:1012900002281DD010BC7047144B18684900032465
:1012A0008C4020EA04001860186802FA01F101433A
:1012B0001960EFE70E4B1868490003248C4020EAC0
:1012C00004001860186802FA01F101431960E1E7AF
:1012D000084B1868490003248C4020EA0400186079
:1012E000186802FA01F101431960D3E708000240CF
:1012F000080402400808024010B4012810D018B1B8
:10130000022819D010BC7047114B186801248C407A
:1013100020EA0400186018688A4002431A60F1E766
:101320000C4B186801248C4020EA040018601868EF
:101330008A4002431A60E5E7074B186801248C4095
:1013400020EA0400186018688A4002431A60D9E74E
:1013500004000240040402400408024001281ED098
:1013600010B1022836D07047012A0AD012B1022AE1
:101370000DD070471031012303FA01F1234B19609E
:101380007047012303FA01F1204B19607047204890
:101390000368012202FA01F1594001607047012AF5
:1013A0000AD012B1022A0DD070471031012303FA7E
:1013B00001F1184B19607047012303FA01F1154B35
:1013C0001960704714480368012202FA01F159407C
:1013D00001607047012A0AD012B1022A0DD070476D
:1013E0001031012303FA01F10C4B196070470123FE
:1013F00003FA01F1094B196070470948036801229B
:1014000002FA01F159400160704700BF1800024024
:10141000140002401804024014040240180802405C
:101420001408024030B4012828D018B1022849D04D
:1014300030BC7047072913D9A1F10803DBB2072B91
:10144000F6D8324B1868083989000F248C4020EAFE
:1014500004001860186802FA01F101431960E7E717
:101460002B4B18688D000F21A94020EA010119605B
:10147000186802FA05F101431960D9E7072913D961
:10148000A1F10803DBB2072BD2D8204B186808392A
:1014900089000F248C4020EA04001860186802FAC2
:1014A00001F101431960C3E7194B18688C000F2143
:1014B000A14020EA01011960186802FA04F1014311
:1014C0001960B5E7072913D9A1F10803DBB2072B8F
:1014D000AED80E4B1868083989000F248C4020EADA
:1014E00004001860186802FA01F1014319609FE7CF
:1014F000074B1C6888000F21814024EA0101196014
:101500001C6802FA00F12143196091E724000240AF
:1015100020000240034A136843F0BF6343F40033E2
:101520001360704730ED00E0430949B1012910D143
:1015300000F01F0001FA00F0064A42F8230070474D
:1015400000F01F00012202FA00F02033014A42F8A5
:101550002300704700E100E0174B1A6842F00102D7
:101560001A601A6822F480321A601A6822F08072B7
:101570001A60114B1B6813F0020FFAD00F4B1A6858
:1015800022F001021A601A6822F002021A601A6838
:1015900022F0F0021A601A6842F080021A601A689B
:1015A00022F4E0521A601A681A601A6822F4604243
:1015B0001A601A681A607047003802400838024002
:1015C00001280BD010B1022810D070470B480368D7
:1015D000012202FA01F119430160704708480368CB
:1015E000012202FA01F119430160704705480368BE
:1015F000012202FA01F119430160704730380240BC
:101600004038024044380240014B47221A6070477C
:1016100000300140054BD860044B9B6813F0800FED
:10162000FAD1024BD868C0B2704700BF0030014009
:10163000064B1A6822F004021A601A6842F002028D
:101640001A601A6842F001021A60704710E000E068
:10165000054B5860044B1B6813F4803FFAD0024BD3
:1016600000229A60704700BF10E000E0024B58680B
:101670009B68C01A704700BF10E000E0014B0022D9
:101680009A60704710E000E0024A136843F00103DB
:101690001360704710E000E0014B5860704700BFD6
:1016A00010E000E0054B1860054B00221A70054A57
:1016B000136843F001031360704700BF44A100208A
:1016C00048A1002010E000E008B5094B1B783BB9A9
:1016D000084B00225A609A601A6822F001021A60D0
:1016E000054B1B6803B19847024B1B6808BD00BF40
:1016F00048A1002010E000E044A1002010B50446FD
:10170000002202211046FFF729FE2046FFF782FF44
:1017100010BD10B50446012202210020FFF71EFE75
:101720002046FFF777FF10BD08B5012202210020F7
:10173000FFF772FD012211460020FFF76DFD012227
:1017400011460020FFF70AFE6420FFF781FF002208
:1017500001211046FFF702FE0120FFF779FF012269
:1017600011460020FFF7FAFD6420FFF771FF002209
:1017700001211046FFF7F2FD6420FFF769FF012207
:1017800011460020FFF7EAFD0948FFF761FF11202D
:10179000FFF7B4FF0748FFF75BFF3A20FFF7AEFF04
:1017A0000520FFF7B6FF2920FFF7A8FF08BD00BFFF
:1017B000C0D40100F0490200F8B507460E461546B0
:1017C0001C462A20FFF79AFF0020FFF7A2FF3846A9
:1017D000FFF79FFF0020FFF79CFF3046FFF799FFC0
:1017E0002B20FFF78BFF0020FFF793FF2846FFF722
:1017F00090FF0020FFF78DFF2046FFF78AFFF8BD1E
:1018000038B505469F2300227F211046FFF7D4FFFD
:101810002C20FFF773FF00240AE035F81400000ABB
:10182000FFF777FF15F81400FFF773FF0134A4B238
:10183000B4F5A04FF1D338BD70B594B00024019435
:10184000204B1A6C42F080521A641B6C03F08053D8
:101850000193019B02941C4B1A6842F440421A60A7
:101860001B6803F440430293029B012308930993EE
:101870004FF480030F93192310934FF4A87311931F
:10188000042612960723139302250E9508A8FEF747
:1018900095FE0F230393049505944FF4805306930C
:1018A0000794294603A8FFF7F1F8FFF71BFA074B47
:1018B000A3FB00308009FEF74DFE3046FEF760FEC8
:1018C00014B070BD0038024000700040D34D62106B
:1018D00008B5FEF7BBFDFFF7AFFFFFF75BFB08BDE9
:1018E00038B50E4B1B787BB10D4C2578FFF7BEFE4B
:1018F0000C4B43F82500FFF7C1FE0B48FFF7CCFE69
:1019000023780133237038BD0748FFF7C5FE074829
:10191000FFF7C8FE014B01221A70F4E749A100202D
:101920004BA100205CA1002040420F00C51A000816
:1019300008B5FFF711FE00210846FFF741FE0C2114
:101940000220FFF73DFE022205210020FFF764FC84
:10195000022207210020FFF75FFC02220421002061
:10196000FFF75AFC052211460020FFF75BFD052218
:1019700007210020FFF756FD052204210020FFF774
:1019800051FDFFF755FEFFF73FFEFFF7CDFE024882
:10199000FFF736FFFBE700BF1000002008B5FFF798
:1019A000DBFD00210846FFF70BFE0C210220FFF7AC
:1019B00007FE022205210020FFF72EFC022207214C
:1019C0000020FFF729FC022204210020FFF724FC5D
:1019D000052211460020FFF725FD052207210020E2
:1019E000FFF720FD052204210020FFF71BFDFFF774
:1019F0001FFEFFF709FEFFF797FE0248FFF700FF03
:101A0000FBE700BF1000002008B5FFF7A5FD00218F
:101A10000846FFF7D5FD012211460020FFF7FCFB29
:101A2000012202210020FFF7F7FB01220321002001
:101A3000FFF7F2FB002201211046FFF725FC0022F0
:101A400002211046FFF720FC002203211046FFF779
:101A50001BFC002201211046FFF74EFC0022022150
:101A60001046FFF749FC002203211046FFF744FC13
:101A7000002211461046FFF7CFFBFFF7D9FDFFF715
:101A800049FD01210020FFF7DFFA06490020FFF79A
:101A900007FB0020FFF7CEFA01210620FFF744FDE7
:101AA000FEE700BFE118000808B5054B1B780C2BBA
:101AB00002D0182B02D008BDFFF73AFFFFF76EFFE8
:101AC0004AA1002008B5002308E0012202FA03F130
:101AD000124802780A4302700133DBB2072B12D896
:101AE00003F111020E4951F82220A2F57A72B2F5E3
:101AF000FA7FEAD8012202FA03F10848027822EAC2
:101B000001020270E8E70023064A1370064A1370C8
:101B1000FFF7BAFDFFF7C8FF08BD00BF4AA10020CC
:101B20005CA100204BA1002049A1002070470000CB
:101B3000014B1868704700BF10A00020034613F83F
:101B4000012B002AFBD1181A0138704730B5141E3A
:101B500005469BB0184605DA8B232B604FF0FF300B
:101B60001BB030BD4FF40273ADF80C3014BF04F15C
:101B7000FF332346029305934FF6FF7300910491C0
:101B8000ADF80E3002461E9B6946284600F072F8FA
:101B9000431CBCBF8B232B60002CE1D0009B002298
:101BA0001A70DDE707B5009313460A46014603485D
:101BB0000068FFF7CBFF03B05DF804FB10A0002026
:101BC0002DE9F0478E689E4282460C469046994623
:101BD00037D88A8912F4906F31D0256809696F1A55
:101BE0006569022305EB450595FBF3F509F1010352
:101BF0003B449D4238BF1D46530530D5294600F071
:101C000079FB064650B90C23CAF80030A38943F08B
:101C10004003A3814FF0FF30BDE8F0873A462169C9
:101C200000F0F6FAA38923F4906343F08003A381C4
:101C3000266165613E44ED1B2660A5604E464E451B
:101C400000D94E4632464146206800F0ECFAA368BF
:101C50009B1BA36023681E4426600020DCE72A4605
:101C600000F0A2FB06460028E2D12169504600F0B0
:101C7000F3FAC8E72DE9F04F9DB0804603938B89B6
:101C80001D060C4616460FD50B696BB9402100F0B6
:101C900031FB2060206128B90C23C8F800304FF0D8
:101CA000FF30C7E0402363610023099320238DF8B0
:101CB000293030238DF82A304FF0010B37463D464E
:101CC00015F8013B0BB1252B3ED1B7EB060A0BD023
:101CD0005346324621464046FFF772FF013000F07E
:101CE000A480099B534409933B78002B00F09D800E
:101CF00000234FF0FF32CDE90523049307938DF8BD
:101D000053301A932F46052217F8011B4F4800F055
:101D10002FFA049BD0B9D90644BF20228DF8532056
:101D20001A0744BF2B228DF853202A782A2A15D06F
:101D3000079A2F4600200A25394611F8013B303B0F
:101D4000092B4DD9B8B10FE02F46B8E73F4A801AAA
:101D50000BFA00F0184304903D46D3E7039A111D97
:101D600012680391002A01DB079204E0524243F01B
:101D70000203079204933B782E2B0CD17B782A2BFD
:101D800033D1039B1A1D1B680392002BB8BF4FF081
:101D9000FF33023705932E4D39780322284600F091
:101DA000E7F938B14023401B03FA00F0049B0343DA
:101DB00001370493397827488DF8281006227E1CB5
:101DC00000F0D6F9002838D0234B13BB039B073310
:101DD00023F0070308330393099B4B4409936DE7F2
:101DE00005FB023201200F46A6E7002301370593C9
:101DF00019460A25384610F8012B303A092A03D92A
:101E0000002BC8D00591C6E705FB01210123074639
:101E1000F0E703AB00932246104B04A94046AFF312
:101E20000080B0F1FF3F8146D6D1A3895B063FF524
:101E300036AF09981DB0BDE8F08F03AB0093224682
:101E4000064B04A9404600F081F8EAE73426000872
:101E50003A2600083E26000800000000C11B0008CA
:101E60002DE9F04791461F468A680B69DDF820800E
:101E70009342B8BF1346C9F8003091F84320064694
:101E80000C4612B10133C9F800302368990642BFED
:101E9000D9F800300233C9F80030256815F006057E
:101EA00007D104F1190AE368D9F800209B1AAB4264
:101EB00028DC94F843302268003318BF01239206CF
:101EC0002DD404F1430239463046C047013020D0BA
:101ED0002368E568D9F8002003F00603042B08BF47
:101EE000AD1AA36822690CBF25EAE5750025934267
:101EF000C4BF9B1AED184FF000091A344D451AD192
:101F0000002008E00123524639463046C0470130E0
:101F100003D14FF0FF30BDE8F0870135C3E7E1188A
:101F20005A1C302081F84300224494F8451082F86E
:101F300043100233C5E70123224639463046C047E5
:101F40000130E6D009F10109D8E700002DE9F0439E
:101F500001F1430C0C46097E85B06E2917460646F2
:101F600098460C9A00F0B38022D8632936D00AD85C
:101F7000002900F0B980582900F0838004F142055F
:101F800084F8421032E0642901D06929F6D1206832
:101F90001368050603F104012AD51B681160002BA4
:101FA00003DA2D225B4284F843206F480A2239E08D
:101FB000732900F09D8008D86F2920D07029DDD1C9
:101FC000236843F02003236003E0752917D07829A4
:101FD000D4D1782384F84530644855E01368191D3E
:101FE0001B68116004F1420584F8423001238CE043
:101FF0001B68116010F0400F18BF1BB2CFE71368C9
:102000002568181D1060280601D51B6802E06806C7
:10201000FBD51B8854486F2914BF0A2208220021CF
:1020200084F843106568A560002DC0F29580216892
:1020300021F004012160002B3DD1002D40F08E8065
:102040006546082A0BD12368DB0708D52369626837
:102050009A42DEBF302305F8013C05F1FF35ACEBB9
:1020600005032361CDF800803B4603AA2146304694
:10207000FFF7F6FE01304DD14FF0FF3005B0BDE85F
:10208000F083394884F84510136821681D1D1B68CA
:1020900015600A060BD5CA0744BF41F02001216034
:1020A0001BB9226822F0200222601022B7E74D06F9
:1020B00048BF9BB2EFE76546B3FBF2F102FB113379
:1020C000C35C05F8013D0B460029F5D1B9E713685B
:1020D00025686169181D106028061B6801D5196004
:1020E00002E06A06FBD51980002323616546B9E743
:1020F0001368191D11601D6862680021284600F0F0
:1021000037F808B1401B606063682361002384F8DE
:102110004330A7E723692A4639463046C047013095
:10212000AAD023689B0713D4E068039B9842B8BFEA
:102130001846A3E701234A4639463046C0470130D6
:102140009AD00135E368039A9B1AAB42F2DCEBE7C5
:10215000002504F11909F5E7002BACD1037884F8C8
:10216000423004F142056CE7452600085626000877
:1021700001F0FF01102A2BDB10F0070F08D010F838
:10218000013B013A8B422DD010F0070F42B3F6D13C
:10219000F0B441EA012141EA014122F007047FF055
:1021A00000070023F0E80256083C85EA010586EAAC
:1021B000010685FA47F5A3FA87F586FA47F6A5FAE8
:1021C00087F68EB9EED1F0BC01F0FF0102F00702F4
:1021D00032B110F8013B013A83EA010313B1F8D19F
:1021E0000020704701387047002D06BF3546033880
:1021F000073815F0010F07D1013015F4807F02BFB9
:10220000013015F4C03F0130F0BC0138704700BF09
:1022100010B5431E0A44914200D110BD11F8014B84
:1022200003F8014FF7E7884210B501EB020307D826
:10223000421E99420AD011F8014B02F8014FF8E70B
:102240008342F5D98118D21AD34200D110BD13F8B8
:10225000014D01F8014DF7E738B50546002945D095
:1022600051F8043C0C1F002BB8BFE41800F0D2F862
:102270001F4A1368104633B9636014602846BDE8EE
:10228000384000F0C8B8A3420CD9216862189342C4
:1022900004BF1A685B68636004BF52182260046060
:1022A000ECE713465A680AB1A242FAD919685818DD
:1022B000A0420BD120680144581882421960DDD138
:1022C000106852685A6001441960D7E702D90C239C
:1022D0002B60D3E7206821188A4204BF1168526836
:1022E000626004BF091821605C60C7E738BD00BFA9
:1022F0004CA1002070B5CD1C25F0030508350C2D30
:1023000038BF0C25002D064601DBA94203D90C235A
:102310003360002070BD00F07DF8214A146821462A
:1023200091B9204C23681BB9304600F063F8206057
:102330002946304600F05EF8431C24D10C2333605C
:10234000304600F068F8E4E70B685B1B18D40B2BF1
:102350000FD90B60CD50CC18304600F05CF804F17A
:102360000B00231D20F00700C31AD3D05A42E250BD
:10237000D0E78C424B6816BF636013600C46EBE7F6
:102380000C464968CCE7C41C24F00304A04205D0E5
:10239000211A304600F02EF80130CFD02560DBE75F
:1023A0004CA1002050A10020F8B5074614460E4667
:1023B00021B91146BDE8F840FFF79CBF22B9FFF7ED
:1023C0004BFF25462846F8BD00F026F8A0420FD264
:1023D00021463846FFF78EFF05460028F2D03146E9
:1023E0002246FFF715FF31463846FFF735FFE9E78C
:1023F0003546E7E738B5064C002305460846236016
:10240000FEF782FC431C02D1236803B12B6038BD68
:1024100058A100207047704751F8043C181F002B4A
:10242000BCBF0B58C01870472E2E2F73797374657C
:102430006D2F7372632F73746D333266342D686140
:102440006C2F73746D3332663478785F68616C5FBB
:10245000636F727465782E63000000000000000056
:102460000102030401020304060708092E2E2F733C
:10247000797374656D2F7372632F73746D33326665
:10248000342D68616C2F73746D3332663478785FE5
:1024900068616C5F7263632E6300000061626F723B
:1024A0007428292C2065786974696E672E2E2E0099
:1024B0006173736572745F706172616D2829206643
:1024C00061696C65643A2066696C65202225732217
:1024D0002C206C696E652025640A000053746163CA
:1024E0006B206672616D653A0A0000002052302050
:1024F0003D2020253038580A0000000020523120AD
:102500003D2020253038580A00000000205232209B
:102510003D2020253038580A00000000205233208A
:102520003D2020253038580A00000000205231326A
:10253000203D20253038580A00000000204C522051
:102540003D2020253038580A00000000205043204C
:102550003D2020253038580A0000000020505352FA
:10256000203D20253038580A000000004653522FE5
:102570004641523A0A0000002043465352203D2073
:1025800020253038580A00002048465352203D206C
:1025900020253038580A00002044465352203D2060
:1025A00020253038580A00002041465352203D2053
:1025B00020253038580A0000204D4D464152203D1C
:1025C00020253038580A00002042464152203D2044
:1025D00020253038580A00004D6973630A00000056
:1025E000204C522F4558435F52455455524E3D2082
:1025F000253038580A0000005B48617264466175F6
:102600006C745D0A000000005B4275734661756C76
:10261000745D0A005B55736167654661756C745D36
:102620000A00000000000000000000000102030496
:1026300006070809232D302B2000686C4C006566C6
:102640006745464700303132333435363738394103
:102650004243444546003031323334353637383919
:07266000616263646566001E
:102668007856341280A00020000000000024F400F6
:10267800FFFFFFFFFFFFFFFFFFFFFFFFFFFFFFFF62
:10268800FFFFFFFFFFFFFFFFFFFFFFFFFFFFFFFF52
:10269800FFFFFFFFFFFFFFFFFFFFFFFFFFFFFFFF42
:1026A800FFFFFFFFFFFFFFFFFFFFFFFFFFFFFFFF32
:102F9800FFFFFFFFFFFFFFFFDFFFDFFFDFFFFFFF99
:102FA800FFFFFFFFFFFFFFFFFFFFFFFFFFFFFFFF29
:102FB800FFFFFFFFFFFFFFFFFFFFFFFFDFFFDFFF59
:102FC800DFFFFFFFFFFFFFFFFFFFFFFFFFFFFFFF29
:102FD800FFFFFFFFFFFFFFFFFFFFFFFFFFFFFFFFF9
:102FE800FFFFFFFFFFFFFFFFFFFFFFFFFFFFFFFFE9
:102FF800FFFFFFFFFFFFFFFFFFFFFFFFFFFFFFFFD9
:10300800FFFFFFFFDFFFDFFFDFFFFFFFFFFFFFFF28
:10301800FFFFFFFFFFFFFFFFFFFFFFFFFFFFFFFFB8
:10302800FFFFFFFFFFFFFFFFDFFFDFFFDFFFFFFF08
:10303800FFFFFFFFFFFFFFFFFFFFFFFFFFFFFFFF98
:10304800FFFFFFFFFFFFFFFFFFFFDFFFDFFFDFFFE8
:10305800DFFFFFFFFFFFFFFFFFFFFFFFFFFFFFFF98
:10306800FFFFFFFFFFFFFFFFFFFFFFFFFFFFFFFF68
:10307800FFFFFFFFFFFFFFFFFFFFFFFFFFFFFFFF58
:10308800FFFFFFFFFFFFFFFFFFFFFFFFFFFFFFFF48
:10309800FFFFFFFFFFFFFFFFFFFFFFFFFFFFFFFF38
:1030A800FFFFFFFFFFFFFFFFFFFFFFFFFFFFFFFF28
:1030B800FFFFFFFFFFFFFFFFFFFFFFFFFFFFFFFF18
:1030C800FFFFFFFFFFFFFFFFFFFFFFFFFFFFFFFF08
:1030D800FFFFFFFFFFFFFFFFFFFFFFFFFFFFFFFFF8
:1030E800FFFFFFFFFFFFFFFFFFFFFFFFFFFFFFFFE8
:1030F800FFFFFFFFFFFFFFFFFFFFFFFFFFFFFFFFD8
:10310800FFFFFFFFFFFFFFFFFFFFFFFFFFFFFFFFC7
:10311800FFFFFFFFFFFFFFFFFFFFFFFFFFFFFFFFB7
:10312800FFFFFFFFFFFFFFFFFFFFFFFFFFFFFFFFA7
:10313800FFFFFFFFFFFFFFFFFFFFFFFFFFFFFFFF97
:10314800FFFFFFFFFFFFFFFFFFFFFFFFFFFFFFFF87
:10315800FFFFFFFFFFFFFFFFFFFFFFFFFFFFFFFF77
:10316800FFFFFFFFFFFFFFFFFFFFFFFFFFFFFFFF67
:10317800FFFFFFFFFFFFFFFFFFFFFFFFFFFFFFFF57
:10318800FFFFFFFFFFFFFFFFFFFFFFFFFFFFFFFF47
:10319800FFFFDFFFFFFF7DEF38C6F7BD59CE7DEF9C
:1031A800FFFFFFFFFFFFFFFFFFFFFFFFFFFFFFFF27
:1031B800FFFFFFFFFFFFFFFFFFFF5DEF38C6F7BD13
:1031C800BAD6FFFFFFFFDFFFFFFFFFFFFFFFFFFF95
:1031D800FFFFFFFFFFFFFFFFFFFFDFFF1CE7DFFF32
:1031E800FFFFFFFFDFFF1CE7FFFFFFFFFFFFFFFF02
:1031F800FFFFFFFFFFFFFFFFFFFFFFFFDFFFFFFFF7
:10320800FFFF1CE718C618C6DBDEFFFFFFFFFFFF46
:10321800FFFFFFFFFFFFFFFFFFFFFFFFFFFFFFFFB6
:10322800FFFFFFFFFFFF3CE718C618C69AD6DFFF6F
:10323800FFFFFFFFFFFFFFFFFFFFFFFFFFFFFFFF96
:10324800FFFFFFFFFFFFFFFF5DEFBAD6DBDEDBDE30
:10325800DBDE9EF7FFFFFFFFFFFFFFFFFFFFFFFF24
:10326800FFFFFFFFFFFFFFFFFFFFFFFFFFFFFFFF66
:10327800FFFFFFFFFFFFFFFFFFFFFFFFFFFFFFFF56
:10328800FFFFFFFFFFFFFFFFFFFFFFFFFFFFFFFF46
:10329800FFFFFFFFDFFF92942C63AE730C639294E1
:1032A800DFFFFFFFFFFFFFFFFFFFFFFFFFFFFFFF46
:1032B800FFFFFFFFFFFFFFFF7DEF30844D6B6D6B5E
:1032C8004D6B18C6FFFFDFFFFFFFFFFFFFFFFFFF8C
:1032D800FFFFFFFFFFFFFFFFFFFF7DEF14A5BEF716
:1032E800FFFFFFFF7DEFF39CDFFFFFFFFFFFFFFF07
:1032F800FFFFFFFFFFFFFFFFFFFFFFFFDFFFFFFFF6
:10330800DBDEAE736D6B6D6B4D6BF7BDFFFFFFFFC3
:10331800FFFFFFFFFFFFFFFFFFFFFFFFFFFFFFFFB5
:10332800FFFFFFFF3CE7CF7B4D6B6D6B4D6BB6B579
:10333800FFFFDFFFFFFFFFFFFFFFFFFFFFFFFFFFB5
:10334800FFFFFFFFDFFFFFFFD7BD4D6B4D6B4D6BE1
:103358000C6318C6FFFFFFFFFFFFFFFFFFFFFFFF24
:10336800FFFFFFFFFFFFFFFFFFFFFFFFFFFFFFFF65
:10337800FFFFFFFFFFFFFFFFFFFFFFFFFFFFFFFF55
:10338800FFFFFFFFFFFFFFFFFFFFFFFFFFFFFFFF45
:10339800DFFFFFFFBAD6CF7B18C659CE18C6CF7B42
:1033A800FBDEFFFFFFFFFFFFFFFFFFFFFFFFFFFF4A
:1033B800FFFFFFFFDFFFFFFF18C6CF7B38C679CEC0
:1033C800F39C518CFFFFFFFFFFFFFFFFFFFFFFFF95
:1033D800FFFFFFFFFFFFFFFFFFFF7DEF718C9EF7F1
:1033E800FFFFFFFF5DEF518CBEF7FFFFFFFFFFFF01
:1033F800FFFFFFFFFFFFFFFFFFFFFFFFDFFFFFFFF5
:10340800D39C518C59CE59CEF39C1084DFFFFFFF1B
:10341800FFFFFFFFFFFFFFFFFFFFFFFFFFFFFFFFB4
:10342800FFFFFFFF34A5108438C659CE55ADCF7BBA
:103438009EF7FFFFFFFFFFFFFFFFFFFFFFFFFFFFFD
:10344800FFFFFFFFDFFFFFFF34A59294F7BDB6B57E
:1034580096B5FBDEFFFFFFFFFFFFFFFFFFFFFFFF4C
:10346800FFFFFFFFFFFFFFFFFFFFFFFFFFFFFFFF64
:10347800FFFFFFFFFFFFFFFFFFFFFFFFFFFFFFFF54
:10348800FFFFFFFFFFFFFFFFFFFFFFFFFFFFFFFF44
:10349800DFFFFFFFF7BD14A5FFFFFFFFFFFFF39C52
:1034A80059CEFFFFDFFFFFFFFFFFFFFFFFFFFFFF1B
:1034B800FFFFFFFFDFFFFFFF14A5B6B5FFFFFFFF0C
:1034C8009EF730849EF7FFFFFFFFFFFFFFFFFFFF20
:1034D800FFFFFFFFFFFFFFFFFFFF7DEF9294BEF7A7
:1034E800FFFFFFFF5DEF9294BEF7FFFFFFFFFFFFB7
:1034F800FFFFFFFFFFFFFFFFFFFFFFFFFFFFDFFFF4
:1035080010841CE7FFFFFFFFDFFF30843CE7FFFF6D
:10351800FFFFFFFFFFFFFFFFFFFFFFFFFFFFFFFFB3
:10352800FFFFFFFF718C9AD6FFFFFFFFFFFF30847C
:10353800DBDEFFFFFFFFFFFFFFFFFFFFFFFFFFFFD8
:10354800FFFFFFFFDFFFFFFF55AD79CEFFFFFFFF56
:10355800FFFFFFFFFFFFFFFFFFFFFFFFFFFFFFFF73
:10356800FFFFFFFFFFFFFFFFFFFFFFFFFFFFFFFF63
:10357800FFFFFFFFFFFFFFFFFFFFFFFFFFFFFFFF53
:10358800FFFFFFFFFFFFFFFFFFFFFFFFFFFFFFFF43
:10359800DFFFFFFFB6B575ADDFFFBEF7DFFF55AD47
:1035A80018C6FFFFFFFFFFFFFFFFFFFFFFFFFFFF43
:1035B800FFFFFFFFDFFFFFFFF39C79CEDFFFDFFF99
:1035C800DFFF30845DEFFFFFFFFFFFFFFFFFFFFF1F
:1035D800FFFFFFFFFFFFFFFFFFFF7DEF718C9EF7EF
:1035E800FFFFFFFF5DEF9294BEF7FFFFFFFFFFFFB6
:1035F800FFFFFFFFFFFFFFFFFFFFFFFFFFFF9EF73C
:10360800718C9EF7DFFFDFFFFFFF9294BAD6FFFFB2
:10361800FFFFFFFFFFFFFFFFFFFFFFFFFFFFFFFFB2
:10362800FFFFDFFF718C5DEFDFFFBEF7FFFFF39C4D
:1036380079CEFFFFDFFFFFFFFFFFFFFFFFFFFFFF69
:10364800FFFFFFFFDFFFFFFF34A538C6DFFFBEF730
:10365800DFFFDFFFFFFFFFFFFFFFFFFFFFFFFFFFB2
:10366800FFFFFFFFFFFFFFFFFFFFFFFFFFFFFFFF62
:10367800FFFFFFFFFFFFFFFFFFFFFFFFFFFFFFFF52
:10368800FFFFFFFFFFFFFFFFFFFFFFFFFFFFFFFF42
:10369800FFFFFFFF9AD69AD6FFFFDFFFFFFF55AD6A
:1036A800F7BDFFFFFFFFFFFFFFFFFFFFFFFFFFFF6C
:1036B800FFFFFFFFFFFFFFFF14A59AD6FFFFDFFF05
:1036C800DFFF34A57DEFFFFFFFFFFFFFFFFFFFFFD9
:1036D800FFFFFFFFFFFFFFFFFFFF5DEF9294BEF7C5
:1036E800FFFFFFFF5DEF9294BEF7FFFFFFFFFFFFB5
:1036F800FFFFFFFFFFFFFFFFFFFFFFFFFFFF7DEF64
:1037080092949EF7FFFFDFFFFFFFB294BAD6FFFF48
:10371800FFFFFFFFFFFFFFFFFFFFFFFFFFFFFFFFB1
:10372800FFFFDFFF718C5DEFFFFFDFFFFFFF14A5D9
:1037380038C6FFFFDFFFFFFFFFFFFFFFFFFFFFFFB1
:10374800FFFFFFFFDFFFFFFF55AD38C6FFFFDFFFBD
:10375800FFFFFFFFFFFFFFFFFFFFFFFFFFFFFFFF71
:10376800FFFFFFFFFFFFFFFFFFFFFFFFFFFFFFFF61
:10377800FFFFFFFFFFFFFFFFFFFFFFFFFFFFFFFF51
:10378800FFFFFFFFFFFFFFFFFFFFFFFFFFFFFFFF41
:10379800FFFFFFFFDFFFFFFFFFFFFFFFFFFFB29409
:1037A80059CEFFFFDFFFFFFFFFFFFFFFFFFFFFFF18
:1037B800FFFFFFFFFFFFFFFFF39C9AD6FFFFDFFF2E
:1037C800DFFF3CE7BEF7FFFFDFFFFFFFFFFFFFFF65
:1037D800FFFFFFFFFFFFFFFFFFFF7DEF9294FFFF5B
:1037E800FFFFFFFF9EF79294DFFFFFFFFFFFFFFF42
:1037F800FFFFFFFFFFFFFFFFFFFFFFFFFFFF5DEF83
:103808009294BEF7FFFFDFFFFFFFB294BAD6FFFF27
:10381800DFFFFFFFFFFFFFFFFFFFFFFFFFFFFFFFD0
:10382800FFFFDFFF718C7DEFFFFFDFFFFFFF14A5B8
:1038380018C6FFFFFFFFFFFFFFFFFFFFFFFFFFFFB0
:10384800FFFFFFFFFFFFFFFF34A538C6FFFFDFFFC5
:10385800DFFFFFFFFFFFFFFFFFFFFFFFFFFFFFFF90
:10386800FFFFFFFFFFFFFFFFFFFFFFFFFFFFFFFF60
:10387800FFFFFFFFFFFFFFFFFFFFFFFFFFFFFFFF50
:10388800FFFFFFFFFFFFFFFFFFFFFFFFFFFFFFFF40
:10389800FFFFDFFFFFFF7DEF18C675ADF39CAE732A
:1038A8003CE7FFFFFFFFFFFFFFFFFFFFFFFFFFFFFB
:1038B800FFFFFFFFDFFFFFFFF39C9AD6FFFFFFFF2D
:1038C800FFFFFFFFFFFFFFFFFFFFFFFFFFFFFFFF00
:1038D800FFFFFFFFFFFFFFFFFFFF9EF7308496B556
:1038E800D7BDF7BD75AD518CDFFFFFFFFFFFFFFFB1
:1038F800FFFFFFFFFFFFFFFFFFFFFFFFFFFF7DEF62
:1039080092949EF7FFFFDFFFFFFFB294BAD6FFFF46
:10391800FFFFFFFFFFFFFFFFFFFFFFFFFFFFFFFFAF
:10392800FFFFBEF7718C7DEFFFFFDFFFFFFF14A5E0
:1039380038C6FFFFDFFFFFFFFFFFFFFFFFFFFFFFAF
:10394800FFFFFFFFDFFFFFFF34A538C6FFFFDFFFE4
:10395800DFFFFFFFFFFFFFFFFFFFFFFFFFFFFFFF8F
:10396800FFFFFFFFFFFFFFFFFFFFFFFFFFFFFFFF5F
:10397800FFFFFFFFFFFFFFFFFFFFFFFFFFFFFFFF4F
:10398800FFFFFFFFFFFFFFFFFFFFFFFFFFFFFFFF3F
:10399800FFFFFFFFDFFFD39C4D6BAE738E7375ADDA
:1039A800FFFFFFFFFFFFFFFFFFFFFFFFFFFFFFFF1F
:1039B800FFFFFFFFDFFFFFFFF39C9AD6FFFFFFFF2C
:1039C800FFFFDFFFFFFFDFFFFFFFFFFFFFFFFFFF3F
:1039D800FFFFFFFFFFFFFFFFFFFF9EF7EF7B8E73E9
:1039E800AE73AE734D6B1084DFFFFFFFFFFFFFFF69
:1039F800FFFFFFFFFFFFFFFFFFFFFFFFFFFF7DEF61
:103A0800718CBEF7FFFFDFFFFFFFB294BAD6FFFF4E
:103A1800FFFFFFFFFFFFFFFFFFFFFFFFFFFFFFFFAE
:103A2800FFFFBEF7718C5DEFFFFFDFFFFFFF14A5FF
:103A380059CEFFFFDFFFFFFFFFFFFFFFFFFFFFFF85
:103A4800FFFFFFFFDFFFFFFF55AD38C6FFFFDFFFBA
:103A5800FFFFFFFFDFFFFFFFFFFFFFFFFFFFFFFF8E
:103A6800FFFFFFFFFFFFFFFFFFFFFFFFFFFFFFFF5E
:103A7800FFFFFFFFFFFFFFFFFFFFFFFFFFFFFFFF4E
:103A8800FFFFFFFFFFFFFFFFFFFFFFFFFFFFFFFF3E
:103A9800DFFFFFFFFBDEAE73D7BD9AD65DEFFFFFFA
:103AA800FFFFFFFFFFFFFFFFFFFFFFFFFFFFFFFF1E
:103AB800FFFFFFFFFFFFFFFFF39C9AD6FFFFDFFF2B
:103AC800FFFFFFFFFFFFFFFFFFFFFFFFFFFFFFFFFE
:103AD800FFFFFFFFFFFFFFFFFFFF9EF7518C18C698
:103AE80059CE59CEF7BD718CDFFFFFFFFFFFFFFFF7
:103AF800FFFFFFFFFFFFFFFFFFFFFFFFFFFF7DEF60
:103B080092949EF7FFFFDFFFFFFFB294BAD6FFFF44
:103B1800DFFFFFFFFFFFFFFFFFFFFFFFFFFFFFFFCD
:103B2800FFFFDFFF718C5DEFFFFFDFFFFFFF14A5D5
:103B380038C6FFFFDFFFFFFFFFFFFFFFFFFFFFFFAD
:103B4800FFFFFFFFDFFFFFFF34A538C6FFFFFFFFC2
:103B5800FFFFFFFFFFFFFFFFFFFFFFFFFFFFFFFF6D
:103B6800FFFFFFFFFFFFFFFFFFFFFFFFFFFFFFFF5D
:103B7800FFFFFFFFFFFFFFFFFFFFFFFFFFFFFFFF4D
:103B8800FFFFFFFFFFFFFFFFFFFFFFFFFFFFFFFF3D
:103B9800FFFFFFFF38C6F39CFFFFFFFFFFFFBEF7E5
:103BA800DFFFFFFFFFFFFFFFFFFFFFFFFFFFFFFF3D
:103BB800FFFFFFFFDFFFFFFFF39C9AD6FFFFDFFF4A
:103BC800FFFF1CE7BEF7FFFFDFFFFFFFFFFFFFFF61
:103BD800FFFFFFFFFFFFFFFFFFFF7DEF9294FFFF57
:103BE800FFFFFFFFBEF7B294DFFFFFFFFFFFFFFFFE
:103BF800FFFFFFFFFFFFFFFFFFFFFFFFFFFF5DEF7F
:103C080092949EF7FFFFDFFFFFFFB294BAD6FFFF43
:103C1800FFFFFFFFFFFFFFFFFFFFFFFFFFFFFFFFAC
:103C2800FFFFBEF7718C5DEFFFFFDFFFFFFF34A5DD
:103C380059CEFFFFDFFFFFFFFFFFFFFFFFFFFFFF83
:103C4800FFFFFFFFDFFFFFFF55AD38C6FFFFDFFFB8
:103C5800FFFFFFFFFFFFFFFFFFFFFFFFFFFFFFFF6C
:103C6800FFFFFFFFFFFFFFFFFFFFFFFFFFFFFFFF5C
:103C7800FFFFFFFFFFFFFFFFFFFFFFFFFFFFFFFF4C
:103C8800FFFFFFFFFFFFFFFFFFFFFFFFFFFFFFFF3C
:103C9800DFFFFFFF18C614A5DFFFBEF7DFFF59CE11
:103CA8001CE7FFFFFFFFFFFFFFFFFFFFFFFFFFFF17
:103CB800FFFFDFFFFFFFFFFFF39C79CEFFFFFFFF52
:103CC800DFFFB2943CE7FFFFDFFFFFFFFFFFFFFFCF
:103CD800FFFFFFFFFFFFFFFFFFFF7DEF92949EF7BF
:103CE800DFFFDFFF5DEF718CDFFFFFFFFFFFFFFFEF
:103CF800FFFFFFFFFFFFFFFFFFFFFFFFFFFF7DEF5E
:103D0800718C9EF7FFFFDFFFFFFFB294BAD6FFFF6B
:103D1800DFFFFFFFFFFFFFFFFFFFFFFFFFFFFFFFCB
:103D2800FFFFDFFF718C5DEFFFFFDFFFFFFF14A5D3
:103D380059CEFFFFFFFFFFFFFFFFFFFFFFFFFFFF62
:103D4800FFFFFFFFDFFFFFFF34A538C6FFFFFFFFC0
:103D5800FFFFFFFFFFFFFFFFFFFFFFFFFFFFFFFF6B
:103D6800FFFFFFFFFFFFFFFFFFFFFFFFFFFFFFFF5B
:103D7800FFFFFFFFFFFFFFFFFFFFFFFFFFFFFFFF4B
:103D8800FFFFFFFFFFFFFFFFFFFFFFFFFFFFFFFF3B
:103D9800DFFFFFFF18C614A5FFFFFFFFFFFF929488
:103DA80079CEFFFFDFFFFFFFFFFFFFFFFFFFFFFFF2
:103DB800FFFFFFFFDFFFFFFFF39C18C6FFFFFFFFBA
:103DC800DFFF10845DEFFFFFFFFFFFFFFFFFFFFF37
:103DD800FFFFFFFFFFFFFFFFFFFF7DEF92949EF7BE
:103DE800FFFFFFFF5DEFB294BEF7FFFFFFFFFFFF8E
:103DF800FFFFFFFFFFFFFFFFFFFFFFFFFFFFDFFFEB
:103E0800718C5DEFFFFFFFFFFFFF718CFBDEFFFF93
:103E1800DFFFFFFFFFFFFFFFFFFFFFFFFFFFFFFFCA
:103E2800FFFFFFFF718CFBDEFFFFFFFFFFFF929498
:103E38009AD6FFFFDFFFFFFFFFFFFFFFFFFFFFFF38
:103E4800FFFFFFFFDFFFFFFF55AD38C6FFFFFFFF96
:103E5800FFFFFFFFFFFFFFFFFFFFFFFFFFFFFFFF6A
:103E6800FFFFFFFFFFFFFFFFFFFFFFFFFFFFFFFF5A
:103E7800FFFFFFFFFFFFFFFFFFFFFFFFFFFFFFFF4A
:103E8800FFFFFFFFFFFFFFFFFFFFFFFFFFFFFFFF3A
:103E9800FFFFFFFFBAD6EF7B3CE75DEF3CE71084FE
:103EA800DBDEFFFFFFFFFFFFFFFFFFFFFFFFFFFF5F
:103EB800FFFFFFFFDFFFFFFF96B592947DEF7DEFD9
:103EC80018C61084DFFFFFFFFFFFFFFFFFFFFFFFA4
:103ED800FFFFFFFFFFFFFFFFFFFF7DEF718CBEF7C6
:103EE800FFFFFFFF5DEF518CDFFFFFFFFFFFFFFFCD
:103EF800FFFFFFFFFFFFFFFFFFFFDFFFFFFFFFFFEA
:103F0800718CB6B57DEF7DEF59CE10849EF7FFFF1B
:103F1800FFFFFFFFFFFFFFFFFFFFFFFFFFFFFFFFA9
:103F2800FFFFFFFFD39C34A55DEF7DEFBAD6CF7BB3
:103F38003CE7FFFFFFFFFFFFFFFFFFFFFFFFFFFF64
:103F4800FFFFFFFFDFFFFFFF34A538C6FFFFFFFFBE
:103F5800FFFFFFFFFFFFFFFFFFFFFFFFFFFFFFFF69
:103F6800FFFFFFFFFFFFFFFFFFFFFFFFFFFFFFFF59
:103F7800FFFFFFFFFFFFFFFFFFFFFFFFFFFFFFFF49
:103F8800FFFFFFFFFFFFFFFFFFFFFFFFFFFFFFFF39
:103F9800FFFFDFFF9EF7CF7B8E73518CAE731084CB
:103FA800DFFFFFFFFFFFFFFFFFFFFFFFFFFFFFFF39
:103FB800FFFFDFFFDFFFFFFF1CE74D6B1084518C15
:103FC8002C6334A5FFFFDFFFDFFFFFFFFFFFFFFFCD
:103FD800FFFFFFFFFFFFFFFFFFFF7DEF9294BEF79C
:103FE800FFFFFFFF7DEF9294DFFFFFFFFFFFFFFF63
:103FF800FFFFFFFFFFFFFFFFFFFFFFFFDFFFFFFFE9
:10400800F7BD0C63108430846D6B34A5FFFFDFFFB0
:10401800FFFFFFFFFFFFFFFFFFFFFFFFFFFFFFFFA8
:10402800FFFFFFFF9AD64D6BEF7B518C4D6BB2941F
:10403800FFFFFFFFFFFFFFFFFFFFFFFFFFFFFFFF88
:10404800FFFFFFFFFFFFFFFF34A538C6FFFFDFFFBD
:10405800FFFFFFFFFFFFFFFFFFFFFFFFFFFFFFFF68
:10406800FFFFFFFFFFFFFFFFFFFFFFFFFFFFFFFF58
:10407800FFFFFFFFFFFFFFFFFFFFFFFFFFFFFFFF48
:10408800FFFFFFFFFFFFFFFFFFFFFFFFFFFFFFFF38
:10409800FFFFFFFFFFFF9AD69294718CD39CFBDE43
:1040A800FFFFFFFFFFFFFFFFFFFFFFFFFFFFFFFF18
:1040B800FFFFFFFFFFFFFFFFFFFF59CE518C518C21
:1040C80055AD7DEFFFFFFFFFFFFFFFFFFFFFFFFF86
:1040D800FFFFFFFFFFFFFFFFFFFFBEF738C6BEF77A
:1040E800FFFFFFFFBEF738C6BEF7FFFFFFFFFFFF6A
:1040F800FFFFFFFFFFFFFFFFFFFFFFFFDFFFFFFFE8
:10410800DFFFF7BD9294929455AD7DEFFFFFFFFF5F
:10411800FFFFFFFFFFFFFFFFFFFFFFFFFFFFFFFFA7
:10412800FFFFFFFFDFFF18C6718C718C14A55DEFD0
:10413800FFFFDFFFFFFFFFFFFFFFFFFFFFFFFFFFA7
:10414800FFFFFFFFFFFFFFFF79CEFBDEFFFFFFFF53
:10415800FFFFFFFFFFFFFFFFFFFFFFFFFFFFFFFF67
:10416800FFFFFFFFFFFFFFFFFFFFFFFFFFFFFFFF57
:10417800FFFFFFFFFFFFFFFFFFFFFFFFFFFFFFFF47
:10418800FFFFFFFFFFFFFFFFFFFFFFFFFFFFFFFF37
:10419800FFFFDFFFDFFFFFFFFFFFFFFFFFFFFFFF67
:1041A800DFFFFFFFFFFFDFFFFFFFFFFFFFFFFFFF57
:1041B800FFFFFFFFFFFFFFFFDFFFFFFFFFFFFFFF27
:1041C800FFFFDFFFDFFFFFFFFFFFFFFFFFFFFFFF37
:1041D800FFFFFFFFFFFFFFFFFFFFFFFFFFFFFFFFE7
:1041E800DFFFFFFFFFFFFFFFFFFFFFFFFFFFFFFFF7
:1041F800FFFFFFFFFFFFFFFFFFFFFFFFFFFFDFFFE7
:10420800DFFFFFFFFFFFFFFFFFFFFFFFFFFFFFFFD6
:10421800FFFFFFFFFFFFFFFFFFFFFFFFFFFFFFFFA6
:10422800FFFFFFFFFFFFFFFFFFFFFFFFFFFFFFFF96
:10423800FFFFFFFFFFFFFFFFFFFFFFFFFFFFFFFF86
:10424800FFFFFFFFFFFFDFFFFFFFFFFFFFFFFFFF96
:10425800FFFFFFFFFFFFFFFFFFFFFFFFFFFFFFFF66
:10426800FFFFFFFFFFFFFFFFFFFFFFFFFFFFFFFF56
:10427800FFFFFFFFFFFFFFFFFFFFFFFFFFFFFFFF46
:10428800FFFFFFFFFFFFFFFFFFFFFFFFFFFFFFFF36
:10429800FFFFDFFFFFFFDFFFDFFFDFFFDFFFFEFFC7
:1042A800FEFFFFFFFFFFDFFFDFFFFFFFFEFFFFFF58
:1042B800DFFFFFFFFFFFFFFFFFFFFFFFDFFFDFFF66
:1042C800FFFFFFFFDFFFFFFFFEFFFFFFFFFFFFFF17
:1042D800DFFFFFFFFFFFDFFFDFFFFFFFDFFFFFFF66
:1042E800FFFFDFFFFFFFDFFFDFFFDFFFFFFFFFFF56
:1042F800FFFFFFFFFFFFFFFFFFFFFFFFFFFFFFFFC6
:10430800FFFFFFFFDFFFDFFFDFFFFFFFFFFFFFFF15
:10431800FFFFFFFFFFFFDFFFFFFFFFFFFFFFFFFFC5
:10432800FFFFFFFFFFFFFFFFDFFFDFFFDFFFFFFFF5
:10433800FFFFFFFFFFFFFFFFFFFFFFFFFFFFDFFFA5
:10434800DFFFFEFFFFFFFFFFDFFFDFFFFFFFFFFFD6
:10435800FFFFDFFFFFFFFFFFFFFFFFFFFFFFFFFF85
:10436800FFFFFFFFFFFFFFFFFFFFFFFFFFFFFFFF55
:10437800FFFFFFFFFFFFFFFFFFFFFFFFFFFFFFFF45
:10438800FFFFFFFFFFFFFFFFFFFFFFFFFFFFFFFF35
:10439800FFFFFFFFFFFFFFFFFFFFFFFFFFFFFFFF25
:1043A800FEFFFEFFDFFFDFFFDFFFFFFFFEFFFFFF78
:1043B800DFFFFFFFFFFFFFFFFFFFFFFFFFFFFFFF25
:1043C800FFFFFFFFFFFFFFFFFFFFFFFFFFFFFFFFF5
:1043D800FFFFFFFFFFFFFFFFFFFFFFFFFFFFFFFFE5
:1043E800FFFFFFFFFFFFFFFFFFFFDFFFDFFFFFFF15
:1043F800FFFFFFFFFFFFFFFFDFFFFFFFFFFFFFFFE5
:10440800DFFFDFFFFFFFFFFFFFFFFFFFFFFFFFFFF4
:10441800FFFFFFFFFFFFFFFFDFFFFFFFFFFFFFFFC4
:10442800FFFFFFFFFFFFFFFFFFFFFFFFFFFFFFFF94
:10443800FFFFFFFFFFFFFFFFFFFFFFFFFFFFFFFF84
:10444800DFFFFEFFFFFFFFFFFFFFDFFFFFFFFFFFB5
:10445800FFFFFFFFFFFFFFFFFFFFFFFFFFFFFFFF64
:10446800FFFFFFFFFFFFFFFFFFFFFFFFFFFFFFFF54
:10447800FFFFFFFFFFFFFFFFFFFFFFFFFFFFFFFF44
:10448800FFFFFFFFFFFFFFFFFFFFFFFFFFFFFFFF34
:10449800FFFFDFFFFEFFFFFFFFFFFFFFDFFFFFFF65
:1044A800FFFFFEFFFFFFFFFFFFFFFFFFFFFFFFFF15
:1044B800DFFFDFFFFFFFFFFFFFFFFFFFFFFFDFFF64
:1044C800FFFFFFFFFFFFDFFFDFFFFFFFFFFFFFFF34
:1044D800FFFFFFFFFFFFDFFFDFFFFFFFFFFFFFFF24
:1044E800DFFFFFFFFFFFFEFFFFFFFFFFFFFFFFFFF5
:1044F800FFFFFFFFFFFFFEFFFFFFDFFFDFFFFFFF05
:10450800FFFFFFFFDFFFFFFFFFFFFFFFFFFFFFFFD3
:10451800DFFFFFFFFFFFFFFFFFFFFFFFFFFFFFFFC3
:10452800FFFFFFFFFFFFFFFFFFFFFFFFFFFFFFFF93
:10453800FFFFFFFFDEFFDEFFFFFFFFFFFFFFDFFFE5
:10454800DFFFFFFFFFFFFEFFFFFFFFFFFFFFFFFF94
:10455800FFFFFFFFDFFFFFFFFFFFFFFFFFFFFFFF83
:10456800FFFFFFFFFFFFFFFFFFFFFFFFFFFFFFFF53
:10457800FFFFFFFFFFFFFFFFFFFFFFFFFFFFFFFF43
:10458800FFFFFFFFFFFFFFFFFFFFFFFFFFFFFFFF33
:10459800FFFFFFFFFFFFFFFFFFFFFFFFDFFFFFFF43
:1045A800FFFFFFFFFFFFFFFFFFFFFFFFFFFFDFFF33
:1045B800DFFFFFFFDFFFFFFFFFFFFFFFFFFFDFFF63
:1045C800FFFFFFFFFFFFFFFFFFFFFFFFFFFFFFFFF3
:1045D800FEFFFFFFFFFFDFFFFEFFFFFFFFF7FFFF0D
:1045E800FFFFFFFFFFFFFEFFFFFFFEFFFEFFDFFFF6
:1045F800FFFFFEFFFEFFFEFFFFFFFFFFFFFFDFFFE6
:10460800DFFFDFFFFFFFDFFFFFFFFFFFFFFFFFFF12
:10461800DFFFFFFFFEFFFFFFFFFFFFFFFFFFFFFFC3
:10462800FFFFFFFFFFFFFFFFFFFFFFFFFFFFFFFF92
:10463800FFFFFFFFFFFFFFFFFFFFFFFFFEFFFFFF83
:10464800DFFFFFFFFFFFFFFFFFFFFFFFFFFFDFFFB2
:10465800FFFFFFFFDFFFFFFFFFFFFFFFFFFFFFFF82
:10466800FFFFFFFFFFFFFFFFFFFFFFFFFFFFFFFF52
:10467800FFFFFFFFFFFFFFFFFFFFFFFFFFFFFFFF42
:10468800FFFFFFFFFFFFFFFFFFFFFFFFFFFFFFFF32
:10469800DFFFDFFFFFFFFFFFFFFFFFFFFFFFFFFF62
:1046A800FFFFFFFFFFFFFFFFFFFFFFFFFFFFDFFF32
:1046B800FFFFFFFFFFFFFFFFFFFFFFFFFFFFFFFF02
:1046C800FFFFFFFFFEFFDFFFDFFFFFFFFFFFFFFF33
:1046D800FEFFFFFFFFFFDFFFFEFFFFFFFEFFFFFF05
:1046E800FFFFFFFFFFFFFFFFFFFFFEFFFEFFDFFFF4
:1046F800FFFFFEFFFEFFFEFFFFFFFFFFFFFFDFFFE5
:10470800FFFFFEFFFFFFFFFFFFFFFFFFFFFFFFFFB2
:10471800FFFFFFFFFEFFFFFFFFFFFFFFFFFFFFFFA2
:10472800FFFFFFFFFFFFFFFFFFFFFFFFFFFFFFFF91
:10473800FFFFFFFFDFFFBFFFDFFFFFFFFFFFFFFF01
:10474800FFFFFFFFFFFFFFFFFFFFFFFFFFFFDFFF91
:10475800FFFFFFFFDFFFFFFFFFFFFFFFFFFFFFFF81
:10476800FFFFFFFFFFFFFFFFFFFFFFFFFFFFFFFF51
:10477800FFFFFFFFFFFFFFFFFFFFFFFFFFFFFFFF41
:10478800FFFFFFFFFFFFFFFFFFFFFFFFFFFFFFFF31
:10479800DFFFDFFFFFFFFDF7FDF7FDFFFEFFFEFF79
:1047A800FEF7FDF7FDF7FDFFFEFFFFFFFFFFDFFF51
:1047B800FDFFFDFFFDFFFDFFFDFFFDFFFDFFFDFF11
:1047C800FDFFFDFFFDFFFFFFFFFFFFFFFFFFFFFFF7
:1047D800FFFFFFFFFFFFFFFFFDF7FCF7FCF7FDF70B
:1047E800FEFFFEFFFDF7FDFFFDFFFCFFFDFFFFFFE6
:1047F800FFFFFEFFFFFFFFFFFFFFFFFFDFFFFFFFE2
:10480800FDF7FDF7FDFFFDFFFDFFFDFFFDFFFDFFD0
:10481800FDFFFDFFFDFFFFFFFFFFFFFFFFFFFFFFA6
:10482800FFFFFFFFFFFFFFFFFFFFFFFFFFFFFFFF90
:10483800FFFFFFFFDFFFDFFFFFFFFDFFFCFFFDFFC7
:10484800FEF7FEFFFEF7FDF7FDF7FDFFFDFFDFFFBB
:10485800FFFFDFFFFFFFFFFFFFFFFFFFFFFFFFFF80
:10486800FFFFFFFFFFFFFFFFFFFFFFFFFFFFFFFF50
:10487800FFFFFFFFFFFFFFFFFFFFFFFFFFFFFFFF40
:10488800FFFFFFFFFFFFFFFFFFFFFFFFFFFFFFFF30
:10489800DFFFFFFF9AE7F4CE14CF13CF13CF13CF68
:1048A80014CF14CF13CFF3CE36D7FEFFDFFFFFFFB1
:1048B8009AEF14C713C713C713C714C714C713C76E
:1048C80014C7F4C616D7FEFFFFFFFFFFFFFFFFFF69
:1048D800FFFFFFFFDFFFFFFF78E714CF13C714C701
:1048E80014CF14CF14C713CF14CFF4CE58DFFFFF63
:1048F800DFFFFFFFFFFFFFFFFFFFFFFFFFFFFEFFE1
:1049080037D714CF14C714C714C714C714C714C78C
:1049180014C7F4C69AE7FFFFFFFFDFFFFFFFFFFFA3
:10492800FFFFFFFFFFFFFFFFFFFFFFFFFFFFFFFF8F
:10493800FFFFFFFFDFFFFFFF79E7F3CE13CF13CFB2
:1049480014CF13CF13C714CF14C7F4CE57DFFFFF0C
:10495800DFFFFFFFFFFFFFFFFFFFFFFFFFFFFFFF7F
:10496800FFFFFFFFFFFFFFFFFFFFFFFFFFFFFFFF4F
:10497800FFFFFFFFFFFFFFFFFFFFFFFFFFFFFFFF3F
:10498800FFFFFFFFFFFFFFFFFFFFFFFFFFFFFFFF2F
:10499800FFFFFFFF37D72DA66DAE6DAE6DAE6CAEC7
:1049A8006DAE6DAE6DAE4DAE71BEFDF7DFFFFFFFB4
:1049B80017D74DA66DA66DA66DA66DA66DA66DA69C
:1049C8006DA64EAE92BEDDF7FFFFDFFFFFFFFFFFD4
:1049D800FFFFDFFFDFFFFFFFB4C64EAE6DAE6DAE6B
:1049E8006DAE6DAE6DAE6DAE6EAE2EAEF5CEFFFF9A
:1049F800DFFFFFFFFFFFFFFFFFFFFFFFFFFFFEFFE0
:104A080072BE4DA66DA66DA66DA66DA66DA66DA609
:104A18006DAE2DA6F7D6FFFFFFFFFFFFFFFFFFFFDD
:104A2800FFFFFFFFFFFFFFFFFFFFFFFFFFFFFFFF8E
:104A3800FFFFFFFFFEFFFEFF15D74DAE6DAE6DAE5B
:104A48006DAE6DAE6CAE6DAE6DAE4EAEB3C6FEFF66
:104A5800FFFFFFFFFFFFFFFFFFFFFFFFFFFFFFFF5E
:104A6800FFFFFFFFFFFFFFFFFFFFFFFFFFFFFFFF4E
:104A7800FFFFFFFFFFFFFFFFFFFFFFFFFFFFFFFF3E
:104A8800FFFFFFFFFFFFFFFFFFFFFFFFFFFFFFFF2E
:104A9800FFFFFFFF37D70B9E2B9E2A9E4A9E499EFB
:104AA8004A9E4A9E4A9E2A9E8FB6FDF7FFFFFFFF49
:104AB80037D72B9E4B9E4B9E4B9E4B9E4B9E4B9EA1
:104AC8004B9E2B9E90B6FCF7FFFFFFFFFFFFFFFFFB
:104AD800DFFFDFFFFFFFFFFFD3C60B9E4A9E4A9E04
:104AE8004A9E4A9E4A9E4A9E4B9E0B9EF3C6FFFFD5
:104AF800FFFFDFFFDFFFFFFFFFFFFFFFFFFFFDFF00
:104B080070B62B9E4B9E4B9E4B9E4B9E4B9E4B9E38
:104B18004B9E0B9E17D7FFFFFEFFFFFFFFFFFFFF18
:104B2800FFFFFFFFFFFFFFFFFFFFFFFFFFFFFFFF8D
:104B3800FFFFFFFFFFFFFFFF15CF2B9E4AA64A9EF0
:104B48002A9E4A9E499E4A9E4B9E2A9EB1BEFEFFC1
:104B5800FFFFFFFFFFFFFFFFFFFFFFFFFFFFFFFF5D
:104B6800FFFFFFFFFFFFFFFFFFFFFFFFFFFFFFFF4D
:104B7800FFFFFFFFFFFFFFFFFFFFFFFFFFFFFFFF3D
:104B8800FFFFFFFFFFFFFFFFFFFFFFFFFFFFFFFF2D
:104B9800FFFFFFFF37D70B9E4A9E499E499E499EBD
:104BA800499E499E699E299E8EB6FDF7FFFFFFFF2D
:104BB80036D74A9E4A9E4A9E4A9E4A9E4A9E4A9E88
:104BC8004A9E2A9E8FB6FCF7FFFFFFFFFFFFFFFFFD
:104BD800DFFFDFFFFFFFFFFFD3C62A9E4A9E499EE5
:104BE800499E499E499E499E4A9E2A9EF3C6FEFFBB
:104BF800FFFFFFFFDFFFFFFFFFFFFFFFFFFFFDFFDF
:104C08008FB6299E4A9E4A9E4A9E4A9E4A9E4A9E20
:104C18004A9E2A9E36D7FFFFFEFFFFFFFFFFFFFFDA
:104C2800FFFFFFFFFFFFFFFFFFFFFFFFFFFFFFFF8C
:104C3800FFFFFFFFFFFFFFFF14CF2A9E4A9E499EFA
:104C4800499E499E499E499E4A9E299EB0BEFEFFA6
:104C5800FFFFFFFFFFFFFFFFFFFFFFFFFFFFFFFF5C
:104C6800FFFFFFFFFFFFFFFFFFFFFFFFFFFFFFFF4C
:104C7800FFFFFFFFFFFFFFFFFFFFFFFFFFFFFFFF3C
:104C8800FFFFFFFFFFFFFFFFFFFFFFFFFFFFFFFF2C
:104C9800FFFFFFFF37D72A9E4A9E4A9E6A9E699E5B
:104CA8004A9E4B9E6A9E2A968FAEFDF7FFFFFFFF36
:104CB80035D74A9E499E4A9E4A9E4A9E4A9E4A9E89
:104CC8004A9E299E8EB6FDF7FFFFFFFFFFFFFFFFFD
:104CD800FFFFFFFFFFFFFFFFD3C62A9E4A9E4A9EA3
:104CE8004A9E4B9E4B9E4A9E4B9E2A9EF3C6FEFFB3
:104CF800FFFFFFFFFFFFFFFFFFFFFFFFFFFFFDFFBE
:104D08008FB6499E4A9E4A9E499E4A9E4A9E4A9E00
:104D1800499E2A9E36D7FFFFFEFFFFFFFFFFFFFFDA
:104D2800FFFFFFFFFFFFFFFFFFFFFFFFFFFFFFFF8B
:104D3800FFFFFFFFFFFFFFFF14CF2A9E4A9E4A9EF8
:104D48004A9E4A9E4A9E4B9E4B964A96B1BEFEFF8D
:104D5800FFFFFEFFFFFFFFFFFFFFFFFFFFFFFFFF5C
:104D6800FFFFFFFFFFFFFFFFFFFFFFFFFFFFFFFF4B
:104D7800FFFFFFFFFFFFFFFFFFFFFFFFFFFFFFFF3B
:104D8800FFFFFFFFFFFFFFFFFFFFFFFFFFFFFFFF2B
:104D9800FFFFFFFF57D72A9E4A9E4A9E4A9E4A9E79
:104DA8004B9E4B9E4B962B968FAEFDF7FFFFFFFF5A
:104DB80035D72A9E4A9E4A9E4A9E4A9E4A9E4A9EA7
:104DC8004A9E29968EB6FDF7FFFFFFFFFFFFFEFF05
:104DD800FFFFFFFFFEFFFFFFF3C62A9E4B9E4B9E81
:104DE8004B9E4B9E4B9E4B964B9E2A9EF3C6FFFFB7
:104DF800FFFFFFFFFFFFFFFFFFFFFFFFFFFFFEFFBC
:104E080090B649964A9E4A9E4A9E4A9E4A9E4A9E05
:104E18004A9E2A9E35D7FFFFFEFFFFFFFFFFFFFFD9
:104E2800FFFFFFFFFFFFFFFFFFFFFFFFFFFFFFFF8A
:104E3800FFFFFFFFFFFFFFFF14C72A9E6A9E4A9EDF
:104E48004A9E4A9E4A9E4B9E4B964A96D1B6FEFF74
:104E5800FFFFFEFFFFFFFFFFFFFFFFFFFFFFFFFF5B
:104E6800FFFFFFFFFFFFFFFFFFFFFFFFFFFFFFFF4A
:104E7800FFFFFFFFFFFFFFFFFFFFFFFFFFFFFFFF3A
:104E8800FFFFFFFFFFFFFFFFFFFFFFFFFFFFFFFF2A
:104E9800FFFFFFFF57D7299E4A9E4B9E4A9E4A9E78
:104EA8004B9E4A9E6A964A96AEAEFDF7FFFFFFFFFD
:104EB80035D72A9E4A9E4A9E4A9E4A9E4A9E4A9EA6
:104EC8004A9E499E8EAEFDF7FFFFFFFFFFFFFEFFE4
:104ED800FFFFFFFFFEFFFFFFD3C6299E6A9E4A9E83
:104EE8004A9E4A9E4A9E4A964A9E299612C7FFFFA4
:104EF800FFFFFFFFFFFFFFFFFEFFFFFFFFFFFEFFBC
:104F080090B6499E4A9E4A9E4A9E4A9E4A9E4A9EFC
:104F18004A9E2A9E55D7FFFFFEFFFFFFFFFFFFFFB8
:104F2800FFFFFFFFFFFFFFFFFFFFFFFFFFFFFFFF89
:104F3800FFFFFFFFFFFFFFFF14C749966B9E4A9EC6
:104F48004B9E4B9E4A9E4A9E6B964996B0BEFEFF6C
:104F5800FFFFFEFFFFFFFFFFFFFFFFFFFFFFFFFF5A
:104F6800FFFFFFFFFFFFFFFFFFFFFFFFFFFFFFFF49
:104F7800FFFFFFFFFFFFFFFFFFFFFFFFFFFFFFFF39
:104F8800FFFFFFFFFFFFFFFFFFFFFFFFFFFFFFFF29
:104F9800FFFFFFFF57D7299E4A9E4B9E4A9E4A9E77
:104FA8004A9E699E699E4A96AEAEFDF7DFFFFFFFF7
:104FB80036D72A9E4A9E2A9E4A9E2A9E4A9E2A9E04
:104FC8004A9E29968EB6FEF7FFFFFFFFFFFFFEFF02
:104FD800FFFFFFFFFEFFFFFFF3C6299E6A9E499E63
:104FE800499E699E699E699E6A9E299E12C7FFFF17
:104FF800DFFFFFFFFFFFFFFFFEFFFFFFDFFFFFFFFA
:1050080090B629964A9E2A9E2A9E4A9E2A9E2A9EA3
:105018004A9E2A9E35D7FFFFFEFFFFFFFFFFFFFFD7
:10502800FFFFFFFFFFFFFFFFFFFFFFFFFFFFFFFF88
:10503800FFFFFFFFFFFFFFFF14CF299E4B9E4A9EF5
:105048004B9E4B9E499E4A9E6A964896D0BEFEFF4E
:10505800FFFFFFFFFFFFFFFFFFFFFFFFFFFFFFFF58
:10506800FFFFFFFFFFFFFFFFFFFFFFFFFFFFFFFF48
:10507800FFFFFFFFFFFFFFFFFFFFFFFFFFFFFFFF38
:10508800FFFFFFFFFFFFFFFFFFFFFFFFFFFFFFFF28
:10509800FFFFFFFF37D7299E6A9E4A9E4A9E4A9E77
:1050A8004A9E499E6A9E2A968EB6FDFFDFFFFFFF45
:1050B80036D72A9E4A9E4A9E4A9E4A9E4A9E4A9EA3
:1050C8004A9E49968EB6FEF7FFFFFFFFFFFFFEFFE1
:1050D800FFFFDFFFFEFFFFFFD3C6299E4A9E4A9EC1
:1050E8004A9E499E4A9E4A9E4A9E299EF3C6FFFFB3
:1050F800DFFFFFFFFFFFFFFFFFFFDFFFDFFFFFFF18
:1051080090B649964A9E4A9E4A9E4A9E4A9E4A9E02
:105118004A9E2A9E55D7FFFFFFFFFFFFDFFFFFFFD5
:10512800FFFFFFFFFFFFFFFFFFFFFFFFFFFFFFFF87
:10513800FFFFFFFFDFFFFFFF14CF299E4A9E4A9E15
:105148004A9E4A9E4A9E2A9E4B9E4896D0BEFFFF84
:10515800DFFFFEFFFFFFFFFFFFFFFFFFFFFFFFFF78
:10516800FFFFFFFFFFFFFFFFFFFFFFFFFFFFFFFF47
:10517800FFFFFFFFFFFFFFFFFFFFFFFFFFFFFFFF37
:10518800FFFFFFFFFFFFFFFFFFFFFFFFFFFFFFFF27
:10519800FFFFFFFF57D7299E4A9E4A9E499E4A9E77
:1051A8004A9E4A9E4A9E2B968EB6FDFFDFFFFFFF62
:1051B80036D74A9E4A9E4A9E4A9E4A9E4A9E4A9E82
:1051C8004A9E49968EB6FEF7FFFFFFFFFFFFFFFFDF
:1051D800FFFFDFFFFEFFFFFFD3C6299E4A9E4A9EC0
:1051E8004A9E4A9E4A9E4A9E4A9E2A9EF3C6FFFFB0
:1051F800DFFFDFFFDFFFFFFFFFFFFFFFDFFFFFFF37
:1052080090B649964A9E4A9E4A9E4A9E4A9E4A9E01
:105218004A9E2A9E55D7FFFFFFFFFFFFFFFFFFFFB4
:10522800FFFFFFFFFFFFFFFFFFFFFFFFFFFFFFFF86
:10523800FFFFFFFFDFFFFFFF14CF499E4A9E4A9EF4
:105248004A9E4A9E4A9E2B9E4B9E4896B0BEFFFFA2
:10525800DFFFFFFFFFFFFFFFFFFFFFFFFFFFFFFF76
:10526800FFFFFFFFFFFFFFFFFFFFFFFFFFFFFFFF46
:10527800FFFFFFFFFFFFFFFFFFFFFFFFFFFFFFFF36
:10528800FFFFFFFFFFFFFFFFFFFFFFFFFFFFFFFF26
:10529800FFFFFFFF37D72A9E4A9E4A9E4A9E499E95
:1052A800499E4A9E4A9E2A9E8FAEFEFFFFFFFFFF41
:1052B80036D74A9E4A9E4A9E4A9E4A9E4A9E4A9E81
:1052C8006A9E49968FB6FEF7FFFFDFFFFFFFFFFFDD
:1052D800FFFFFFFFFFFFFFFFD3C62A9E4A9E4A9E9D
:1052E8004A9E4A9E4A9E4A9E4A9E2A96F3C6FFFFB7
:1052F800DFFFFFFFDFFFFFFFFFFFFFFFDFFFFEFF17
:1053080090B649964A9E4A9E4A9E4A9E4A9E4A9E00
:105318004A9E2A9E55D7FFFFFFFFFFFFFFFFFFFFB3
:10532800FFFFFFFFFFFFFFFFFFFFFFFFFFFFFFFF85
:10533800FFFFFFFFFFFFFFFF14CF299E4A9E4A9EF3
:105348004A9E4A9E2A9E4A9E4B9E499EB1BEFEFF99
:10535800FFFFFFFFFFFFFFFFFFFFFFFFFFFFFFFF55
:10536800FFFFFFFFFFFFFFFFFFFFFFFFFFFFFFFF45
:10537800FFFFFFFFFFFFFFFFFFFFFFFFFFFFFFFF35
:10538800FFFFFFFFFFFFFFFFFFFFFFFFFFFFFFFF25
:10539800FFFFFFFF57D72A9E6A9E4A9E4A9E499E54
:1053A800499E4A9E4A9E299E8FB6FEFFFFFFFFFF39
:1053B80036D72A9E4A9E4A9E4A9E4A9E4A9E4A9EA0
:1053C8004A9E29968FB6FDF7FFFFFFFFFFFFFFFFFD
:1053D800FFFFFFFFFFFFFFFFF3C62A964A9E4A9E84
:1053E8004A9E4A9E4A9E4A9E4A9E2A96F3C6FFFFB6
:1053F800FFFFFFFFFFFFFFFFFFFFFFFFFFFFFEFFB6
:1054080090B649964A9E4A9E4A9E4A9E4A9E4A9EFF
:105418004A9E2A9E35D7FFFFFFFFFFFFFFFFFFFFD2
:10542800FFFFFFFFFFFFFFFFFFFFFFFFFFFFFFFF84
:10543800FFFFFFFFFFFFFFFF14CF2A9E4A9E4A9EF1
:105448004A9E4A9E4A9E4A9E4A9E299EB1BEFEFF99
:10545800FFFFFFFFFFFFFFFFFFFFFFFFFFFFFFFF54
:10546800FFFFFFFFFFFFFFFFFFFFFFFFFFFFFFFF44
:10547800FFFFFFFFFFFFFFFFFFFFFFFFFFFFFFFF34
:10548800FFFFFFFFFFFFFFFFFFFFFFFFFFFFFFFF24
:10549800FFFFFFFF56D72A9E4B9E4B9E4A9E4A9E71
:1054A8004A9E4A9E6A9E499E8FB6FEFFFFFFFFFFF7
:1054B80036D72A9E4A9E4A9E4A9E4A9E4A9E4A9E9F
:1054C8006A9E49968FB6FEF7FFFFFFFFFFFFFFFFBB
:1054D800FFFFFFFFDFFFFFFFD3C64A964A9E4A9EA3
:1054E8004A9E6A964A9E2A9E4A9E2A96F3C6FFFFBD
:1054F800FFFFFFFFFFFFFFFFFFFFFFFFDFFFFEFFD5
:1055080090B6299E4A9E4A9E4A9E4A9E4A9E4A9E16
:105518004A9E2A9E35D7FFFFFFFFFFFFFFFFFFFFD1
:10552800FFFFFFFFFFFFFFFFFFFFFFFFFFFFFFFF83
:10553800FFFFFFFFFFFFFFFF14CF2A9E6A9E4A9ED0
:105548004A9E4A9E4A9E4A9E6A9E4A9EB1BEFEFF57
:10555800FFFFFFFFFFFFFFFFFFFFFFFFFFFFFFFF53
:10556800FFFFFFFFFFFFFFFFFFFFFFFFFFFFFFFF43
:10557800FFFFFFFFFFFFFFFFFFFFFFFFFFFFFFFF33
:10558800FFFFFFFFFFFFFFFFFFFFFFFFFFFFFFFF23
:10559800FFFFFFFF55D72A9E4B9E4B9E4B9E4A9E70
:1055A8004B9E4A9E4A9E299E8FB6FEFFFFFFFFFF35
:1055B80036D72A9E4A9E4A9E4A9E4A9E4A9E4A9E9E
:1055C8006A9E49968FB6FEF7FFFFFFFFFFFFFFFFBA
:1055D800FFFFFFFFFFFFFFFFF3C62A964A9E4A9E82
:1055E8004A9E4A9E4A9E4A9E4A9E2A96F3C6FFFFB4
:1055F800FFFFFFFFFFFFFFFFFFFFFFFFFFFFFEFFB4
:1056080090B649964A9E4A9E4A9E4A9E4A9E4A9EFD
:105618004A9E2A9E35D7FFFFFFFFFFFFFFFFFFFFD0
:10562800FFFFFFFFFFFFFFFFFFFFFFFFFFFFFFFF82
:10563800FFFFFFFFFFFFFFFF14CF2A9E4A9E4A9EEF
:105648004A9E4A9E4A9E4A9E4A9E499EB1BEFEFF77
:10565800FFFFFFFFFFFFFFFFFFFFFFFFFFFFFFFF52
:10566800FFFFFFFFFFFFFFFFFFFFFFFFFFFFFFFF42
:10567800FFFFFFFFFFFFFFFFFFFFFFFFFFFFFFFF32
:10568800FFFFFFFFFFFFFFFFFFFFFFFFFFFFFFFF22
:10569800FFFFFFFF56D72A9E4A9E4B9E2B9E4A9E8F
:1056A8004A9E4A9E6A9E499E8FB6FEFFFFFFFFFFF5
:1056B80036D72A9E4A9E4A9E4A9E4A9E4A9E4A9E9D
:1056C8006A9E49968FB6FEF7FFFFFFFFFFFFFFFFB9
:1056D800FFFFFFFFFFFFFFFFF3C64A964A9E4A9E61
:1056E8004A9E6A9E4A9E4A9E4A9E2A96F3C6FFFF93
:1056F800FFFFFFFFFFFFFFFFFFFFFFFFFFFFFEFFB3
:1057080090B6499E4A9E4A9E4A9E4A9E4A9E4A9EF4
:105718004A9E2A9E35D7FFFFFFFFFFFFFFFFFFFFCF
:10572800FFFFFFFFFFFFFFFFFFFFFFFFFFFFFFFF81
:10573800FFFFFFFFFFFFFFFF14CF2A9E6A9E4A9ECE
:105748004A9E4A9E4A9E4A9E6A9E4A9EB1BEFEFF55
:10575800FFFFFFFFFFFFFFFFFFFFFFFFFFFFFFFF51
:10576800FFFFFFFFFFFFFFFFFFFFFFFFFFFFFFFF41
:10577800FFFFFFFFFFFFFFFFFFFFFFFFFFFFFFFF31
:10578800FFFFFFFFFFFFFFFFFFFFFFFFFFFFFFFF21
:10579800FFFFFFFF56D72A9E699E4A9E2B9E4A9E70
:1057A800499E4A9E6A9E499E8FB6FEFFFFFFFFFFF5
:1057B80036D72A9E4A9E4A9E4A9E4A9E4A9E4A9E9C
:1057C8006A9E49968FB6FEF7FFFFFFFFFFFFFFFFB8
:1057D800FFFFFFFFFFFFFFFFF3C64A964A9E4A9E60
:1057E8004A9E6A9E4A9E4A9E4A9E2A96F3C6FFFF92
:1057F800FFFFFFFFFFFFFFFFFFFFFFFFFFFFFEFFB2
:1058080090B6499E4A9E4A9E4A9E4A9E4A9E4A9EF3
:105818004A9E2A9E35D7FFFFFFFFFFFFFFFFFFFFCE
:10582800FFFFFFFFFFFFFFFFFFFFFFFFFFFFFFFF80
:10583800FFFFFFFFFFFFFFFF14CF2A9E6A9E4A9ECD
:105848004A9E4A9E4A9E4A9E6A9E4A9EB1BEFEFF54
:10585800FFFFFFFFFFFFFFFFFFFFFFFFFFFFFFFF50
:10586800FFFFFFFFFFFFFFFFFFFFFFFFFFFFFFFF40
:10587800FFFFFFFFFFFFFFFFFFFFFFFFFFFFFFFF30
:10588800FFFFFFFFFFFFFFFFFFFFFFFFFFFFFFFF20
:10589800FFFFFFFF56D72A9E699E499E499E4A9E52
:1058A8004A9E4A9E6A9E499E8FB6FEFFFFFFFFFFF3
:1058B80036D72A9E4A9E4A9E4A9E4A9E4A9E4A9E9B
:1058C8006A9E49968FB6FEF7FFFFFFFFFFFFFFFFB7
:1058D800FFFFFFFFFFFFFFFFF3C64A964A9E4A9E5F
:1058E8004A9E6A9E4A9E4A9E4A9E2A96F3C6FFFF91
:1058F800FFFFFFFFFFFFFFFFFFFFFFFFFFFFFEFFB1
:1059080090B6499E4A9E4A9E4A9E4A9E4A9E4A9EF2
:105918004A9E2A9E35D7FFFFFFFFFFFFFFFFFFFFCD
:10592800FFFFFFFFFFFFFFFFFFFFFFFFFFFFFFFF7F
:10593800FFFFFFFFFFFFFFFF14CF2A9E6A9E4A9ECC
:105948004A9E4A9E4A9E4A9E6A9E4A9EB1BEFEFF53
:10595800FFFFFFFFFFFFFFFFFFFFFFFFFFFFFFFF4F
:10596800FFFFFFFFFFFFFFFFFFFFFFFFFFFFFFFF3F
:10597800FFFFFFFFFFFFFFFFFFFFFFFFFFFFFFFF2F
:10598800FFFFFFFFFFFFFFFFFFFFFFFFFFFFFFFF1F
:10599800FFFFFFFF56D72A9E4A9E689E689E4A9E32
:1059A8004B9E4A9E4A9E499E8FB6FEFFFFFFFFFF11
:1059B80036D72A9E4A9E4A9E4A9E4A9E4A9E4A9E9A
:1059C8006A9E49968FB6FEF7FFFFFFFFFFFFFFFFB6
:1059D800FFFFFFFFFFFFFFFFF3C64A964A9E4A9E5E
:1059E8004A9E6A9E4A9E4A9E4A9E2A96F3C6FFFF90
:1059F800FFFFFFFFFFFFFFFFFFFFFFFFFFFFFEFFB0
:105A080090B6499E4A9E4A9E4A9E4A9E4A9E4A9EF1
:105A18004A9E2A9E35D7FFFFFFFFFFFFFFFFFFFFCC
:105A2800FFFFFFFFFFFFFFFFFFFFFFFFFFFFFFFF7E
:105A3800FFFFFFFFFFFFFFFF14CF2A9E6A9E4A9ECB
:105A48004A9E4A9E4A9E4A9E6A9E4A9EB1BEFEFF52
:105A5800FFFFFFFFFFFFFFFFFFFFFFFFFFFFFFFF4E
:105A6800FFFFFFFFFFFFFFFFFFFFFFFFFFFFFFFF3E
:105A7800FFFFFFFFFFFFFFFFFFFFFFFFFFFFFFFF2E
:105A8800FFFFFFFFFFFFFFFFFFFFFFFFFFFFFFFF1E
:105A9800FFFFFFFF56D70A9E4A9E699E699E4A9E4F
:105AA8002B9E4A9E6A9E499E8FB6FEFFFFFFFFFF10
:105AB80036D72A9E4A9E4A9E4A9E4A9E4A9E4A9E99
:105AC8006A9E49968FB6FEF7FFFFFFFFFFFFFFFFB5
:105AD800FFFFFFFFFFFFFFFFF3C64A964A9E4A9E5D
:105AE8004A9E6A9E4A9E4A9E4A9E2A96F3C6FFFF8F
:105AF800FFFFFFFFFFFFFFFFFFFFFFFFFFFFFEFFAF
:105B080090B6499E4A9E4A9E4A9E4A9E4A9E4A9EF0
:105B18004A9E2A9E35D7FFFFFFFFFFFFFFFFFFFFCB
:105B2800FFFFFFFFFFFFFFFFFFFFFFFFFFFFFFFF7D
:105B3800FFFFFFFFFFFFFFFF14CF2A9E6A9E4A9ECA
:105B48004A9E4A9E4A9E4A9E6A9E4A9EB1BEFEFF51
:105B5800FFFFFFFFFFFFFFFFFFFFFFFFFFFFFFFF4D
:105B6800FFFFFFFFFFFFFFFFFFFFFFFFFFFFFFFF3D
:105B7800FFFFFFFFFFFFFFFFFFFFFFFFFFFFFFFF2D
:105B8800FFFFFFFFFFFFFFFFFFFFFFFFFFFFFFFF1D
:105B9800FFFFFFFF37D70B9E4A9E4BA60B96EA8D59
:105BA8002A9E4A9E4A9E499E8FB6FEFFFFFFFFFF30
:105BB80036D72A9E4A9E4A9E4A9E4A9E4A9E4A9E98
:105BC8006A9E49968FB6FEF7FFFFFFFFFFFFFFFFB4
:105BD800FFFFFFFFFFFFFFFFF3C64A964A9E4A9E5C
:105BE8004A9E6A9E4A9E4A9E4A9E2A96F3C6FFFF8E
:105BF800FFFFFFFFFFFFFFFFFFFFFFFFFFFFFEFFAE
:105C080090B6499E4A9E4A9E4A9E4A9E4A9E4A9EEF
:105C18004A9E2A9E35D7FFFFFFFFFFFFFFFFFFFFCA
:105C2800FFFFFFFFFFFFFFFFFFFFFFFFFFFFFFFF7C
:105C3800FFFFFFFFFFFFFFFF14CF2A9E6A9E4A9EC9
:105C48004A9E4A9E4A9E4A9E6A9E4A9EB1BEFEFF50
:105C5800FFFFFFFFFFFFFFFFFFFFFFFFFFFFFFFF4C
:105C6800FFFFFFFFFFFFFFFFFFFFFFFFFFFFFFFF3C
:105C7800FFFFFFFFFFFFFFFFFFFFFFFFFFFFFFFF2C
:105C8800FFFFFFFFFFFFFFFFFFFFFFFFFFFFFFFF1C
:105C9800FFFFFFFF36D72CA62C9EAA8D4985C98DFC
:105CA8004A9E4A9E4A9E499E8FB6FEFFFFFFFFFF0F
:105CB80036D72A9E4A9E4A9E4A9E4A9E4A9E4A9E97
:105CC8006A9E49968FB6FEF7FFFFFFFFFFFFFFFFB3
:105CD800FFFFFFFFFFFFFFFFF3C64A964A9E4A9E5B
:105CE8004A9E6A9E4A9E4A9E4A9E2A96F3C6FFFF8D
:105CF800FFFFFFFFFFFFFFFFFFFFFFFFFFFFFEFFAD
:105D080090B6499E4A9E4A9E4A9E4A9E4A9E4A9EEE
:105D18004A9E2A9E35D7FFFFFFFFFFFFFFFFFFFFC9
:105D2800FFFFFFFFFFFFFFFFFFFFFFFFFFFFFFFF7B
:105D3800FFFFFFFFFFFFFFFF14CF2A9E6A9E4A9EC8
:105D48004A9E4A9E4A9E4A9E6A9E4A9EB1BEFEFF4F
:105D5800FFFFFFFFFFFFFFFFFFFFFFFFFFFFFFFF4B
:105D6800FFFFFFFFFFFFFFFFFFFFFFFFFFFFFFFF3B
:105D7800FFFFFFFFFFFFFFFFFFFFFFFFFFFFFFFF2B
:105D8800FFFFFFFFFFFFFFFFFFFFFFFFFFFFDFFF3B
:105D9800DFFFFFFF57D70D9E4B85C974AA8D6B9EF9
:105DA8004A9E4A9E6A9E499E8FB6FEFFFFFFFFFFEE
:105DB80036D72A9E4A9E4A9E4A9E4A9E4A9E4A9E96
:105DC8006A9E49968FB6FEF7FFFFFFFFFFFFFFFFB2
:105DD800FFFFFFFFFFFFFFFFF3C64A964A9E4A9E5A
:105DE8004A9E6A9E4A9E4A9E4A9E2A96F3C6FFFF8C
:105DF800FFFFFFFFFFFFFFFFFFFFFFFFFFFFFEFFAC
:105E080090B6499E4A9E4A9E4A9E4A9E4A9E4A9EED
:105E18004A9E2A9E35D7FFFFFFFFFFFFFFFFFFFFC8
:105E2800FFFFFFFFFFFFFFFFFFFFFFFFFFFFFFFF7A
:105E3800FFFFFFFFFFFFFFFF14CF2A9E6A9E4A9EC7
:105E48004A9E4A9E4A9E4A9E6A9E4A9EB1BEFEFF4E
:105E5800FFFFFFFFFFFFFFFFFFFFFFFFFFFFFFFF4A
:105E6800FFFFFFFFFFFFFFFFFFFFFFFFFFFFFFFF3A
:105E7800FFFFFFFFFFFFFFFFFFFFFFFFFFFFFFFF2A
:105E8800FFFFFFFFFFFFFFFFFFFFFFFFDFFFFFFF3A
:105E9800DFFFFFFF39D7CA7C27648B8D6CA64A9633
:105EA8006A9E4A9E4A9E499E8FB6FEFFFFFFFFFFED
:105EB80036D72A9E4A9E4A9E4A9E4A9E4A9E4A9E95
:105EC8006A9E49968FB6FEF7FFFFFFFFFFFFFFFFB1
:105ED800FFFFFFFFFFFFFFFFF3C64A964A9E4A9E59
:105EE8004A9E6A9E4A9E4A9E4A9E2A96F3C6FFFF8B
:105EF800FFFFFFFFFFFFFFFFFFFFFFFFFFFFFEFFAB
:105F080090B6499E4A9E4A9E4A9E4A9E4A9E4A9EEC
:105F18004A9E2A9E35D7FFFFFFFFFFFFFFFFFFFFC7
:105F2800FFFFFFFFFFFFFFFFFFFFFFFFFFFFFFFF79
:105F3800FFFFFFFFFFFFFFFF14CF2A9E6A9E4A9EC6
:105F48004A9E4A9E4A9E4A9E6A9E4A9EB1BEFEFF4D
:105F5800FFFFFFFFFFFFFFFFFFFFFFFFFFFFFFFF49
:105F6800FFFFFFFFFFFFFFFFFFFFFFFFFFFFFFFF39
:105F7800FFFFFFFFFFFFFFFFFFFFFFFFFFFFFFFF29
:105F8800FFFFFFFFFFFFFFFFFFFFFFFFFFFFDFFF39
:105F9800FFFFDFFF539DA75BAC954CA64A9E4A9E28
:105FA8004A9E4A9E6A9E499E8FB6FEFFFFFFFFFFEC
:105FB80036D72A9E4A9E4A9E4A9E4A9E4A9E4A9E94
:105FC8006A9E49968FB6FEF7FFFFFFFFFFFFFFFFB0
:105FD800FFFFFFFFFFFFFFFFF3C64A964A9E4A9E58
:105FE8004A9E6A9E4A9E4A9E4A9E2A96F3C6FFFF8A
:105FF800FFFFFFFFFFFFFFFFFFFFFFFFFFFFFEFFAA
:1060080090B6499E4A9E4A9E4A9E4A9E4A9E4A9EEB
:106018004A9E2A9E35D7FFFFFFFFFFFFFFFFFFFFC6
:10602800FFFFFFFFFFFFFFFFFFFFFFFFFFFFFFFF78
:10603800FFFFFFFFFFFFFFFF14CF2A9E6A9E4A9EC5
:106048004A9E4A9E4A9E4A9E6A9E4A9EB1BEFEFF4C
:10605800FFFFFFFFFFFFFFFFFFFFFFFFFFFFFFFF48
:10606800FFFFFFFFFFFFFFFFFFFFFFFFFFFFFFFF38
:10607800FFFFFFFFFFFFFFFFFFFFFFFFFFFFFFFF28
:10608800FFFFFFFFFFFFFFFFFFFFFFFFFFFFFFFF18
:10609800FFFF96B52A536C8D6DA64A9E499E4A9E6F
:1060A8004B9E4A9E6A9E499E8FB6FEFFFFFFFFFFEA
:1060B80036D72A9E4A9E4A9E4A9E4A9E4A9E4A9E93
:1060C8006A9E49968FB6FEF7FFFFFFFFFFFFFFFFAF
:1060D800FFFFFFFFFFFFFFFFF3C64A964A9E4A9E57
:1060E8004A9E6A9E4A9E4A9E4A9E2A96F3C6FFFF89
:1060F800FFFFFFFFFFFFFFFFFFFFFFFFFFFFFEFFA9
:1061080090B6499E4A9E4A9E4A9E4A9E4A9E4A9EEA
:106118004A9E2A9E35D7FFFFFFFFFFFFFFFFFFFFC5
:10612800FFFFFFFFFFFFFFFFFFFFFFFFFFFFFFFF77
:10613800FFFFFFFFFFFFFFFF14CF2A9E6A9E4A9EC4
:106148004A9E4A9E4A9E4A9E6A9E4A9EB1BEFEFF4B
:10615800FFFFFFFFFFFFFFFFFFFFFFFFFFFFFFFF47
:10616800FFFFFFFFFFFFFFFFFFFFFFFFFFFFFFFF37
:10617800FFFFFFFFFFFFFFFFFFFFFFFFFFFFFFFF27
:10618800FFFFFFFFFFFFFFFFFFFFFFFFDFFFFFFF37
:1061980018C62D632E954CA60A9E299E4A9E4A9E95
:1061A8002A964A9E6A9E499E8FB6FEFFFFFFFFFF12
:1061B80036D72A9E4A9E4A9E4A9E4A9E4A9E4A9E92
:1061C8006A9E49968FB6FEF7FFFFFFFFFFFFFFFFAE
:1061D800FFFFFFFFFFFFFFFFF3C64A964A9E4A9E56
:1061E8004A9E6A9E4A9E4A9E4A9E2A96F3C6FFFF88
:1061F800FFFFFFFFFFFFFFFFFFFFFFFFFFFFFEFFA8
:1062080090B6499E4A9E4A9E4A9E4A9E4A9E4A9EE9
:106218004A9E2A9E35D7FFFFFFFFFFFFFFFFFFFFC4
:10622800FFFFFFFFFFFFFFFFFFFFFFFFFFFFFFFF76
:10623800FFFFFFFFFFFFFFFF14CF2A9E6A9E4A9EC3
:106248004A9E4A9E4A9E4A9E6A9E4A9EB1BEFEFF4A
:10625800FFFFFFFFFFFFFFFFFFFFFFFFFFFFFFFF46
:10626800FFFFFFFFFFFFFFFFFFFFFFFFFFFFFFFF36
:10627800FFFFFFFFFFFFFFFFFFFFFFFFFFFFFFFF26
:10628800FFFFFFFFFFFFFFFFFFFFFFFFFFFFFBDE3B
:106298002D63928C56D72A9E4A9E4A9E4A9E4A9EB3
:1062A8004A9E4A9E6A9E499E8FB6FEFFFFFFFFFFE9
:1062B80036D72A9E4A9E4A9E4A9E4A9E4A9E4A9E91
:1062C8006A9E49968FB6FEF7FFFFFFFFFFFFFFFFAD
:1062D800FFFFFFFFFFFFFFFFF3C64A964A9E4A9E55
:1062E8004A9E6A9E4A9E4A9E4A9E2A96F3C6FFFF87
:1062F800FFFFFFFFFFFFFFFFFFFFFFFFFFFFFEFFA7
:1063080090B6499E4A9E4A9E4A9E4A9E4A9E4A9EE8
:106318004A9E2A9E35D7FFFFFFFFFFFFFFFFFFFFC3
:10632800FFFFFFFFFFFFFFFFFFFFFFFFFFFFFFFF75
:10633800FFFFFFFFFFFFFFFF14CF2A9E6A9E4A9EC2
:106348004A9E4A9E4A9E4A9E6A9E4A9EB1BEFEFF49
:10635800FFFFFFFFFFFFFFFFFFFFFFFFFFFFFFFF45
:10636800FFFFFFFFFFFFFFFFFFFFFFFFFFFFFFFF35
:10637800FFFFFFFFFFFFFFFFFFFFFFFFFFFFFFFF25
:10638800DFFFDFFFFFFFDFFFFFFFFFFFBFF7308407
:106398002D6B1CDF77DF0A9E4A9E4A9E4A9E4A9EC4
:1063A8004A9E4A9E6A9E499E8FB6FEFFFFFFFFFFE8
