:100000000C942A000C9476050C94AD050C943C00DD
:100010000C943C000C943C000C943C000C943C0070
:100020000C943C000C943C000C943C000C943C0060
:100030000C943C000C943C000C943C000C943C0050
:100040000C943C000C943C000C943C000C943C0040
:100050000C943C0011241FBECFE5D8E0DEBFCDBF1D
:1000600010E0A0E6B0E001C01D92A136B107E1F7B3
:100070000E9459050C94F5050C940000DF93CF9372
:1000800000D000D00F92CDB7DEB789836A834B834F
:100090008981843008F0DCC08A81883008F0D8C0BB
:1000A0008B81813021F08B81882309F0D1C0898137
:1000B000282F30E03D832C838C819D8181309105F8
:1000C00009F443C02C813D81223031052CF48C8110
:1000D0009D81009771F0BCC02C813D81223031059B
:1000E00009F45FC08C819D818330910509F485C03E
:1000F000AFC08B818130A1F4AAE3B0E0EAE3F0E085
:100100008081482F8A81282F30E081E090E0022E04
:1001100002C0880F991F0A94E2F7842B8C9398C031
:10012000AAE3B0E0EAE3F0E08081482F8A81282F3B
:1001300030E081E090E0022E02C0880F991F0A94FF
:10014000E2F7809584238C9383C08B818130A1F466
:10015000A7E3B0E0E7E3F0E08081482F8A81282F11
:1001600030E081E090E0022E02C0880F991F0A94CF
:10017000E2F7842B8C936CC0A7E3B0E0E7E3F0E0F8
:100180008081482F8A81282F30E081E090E0022E84
:1001900002C0880F991F0A94E2F7809584238C93FC
:1001A00057C08B818130A1F4A4E3B0E0E4E3F0E038
:1001B0008081482F8A81282F30E081E090E0022E54
:1001C00002C0880F991F0A94E2F7842B8C9340C0D9
:1001D000A4E3B0E0E4E3F0E08081482F8A81282F97
:1001E00030E081E090E0022E02C0880F991F0A944F
:1001F000E2F7809584238C932BC08B818130A1F40E
:10020000A1E3B0E0E1E3F0E08081482F8A81282F6C
:1002100030E081E090E0022E02C0880F991F0A941E
:10022000E2F7842B8C9314C0A1E3B0E0E1E3F0E0AB
:100230008081482F8A81282F30E081E090E0022ED3
:1002400002C0880F991F0A94E2F7809584238C934B
:100250000F900F900F900F900F90CF91DF91089516
:10026000DF93CF9300D000D00F92CDB7DEB7898354
:100270006A834B838981843008F0DCC08A818830AE
:1002800008F0D8C08B81813021F08B81882309F060
:10029000D1C08981282F30E03D832C838C819D81C2
:1002A0008130910509F443C02C813D812230310514
:1002B0002CF48C819D81009771F0BCC02C813D8114
:1002C0002230310509F45FC08C819D818330910516
:1002D00009F485C0AFC08B818130A1F4ABE3B0E0FD
:1002E000EBE3F0E08081482F8A81282F30E081E025
:1002F00090E0022E02C0880F991F0A94E2F7842B27
:100300008C9398C0ABE3B0E0EBE3F0E08081482F42
:100310008A81282F30E081E090E0022E02C0880F11
:10032000991F0A94E2F7809584238C9383C08B8174
:100330008130A1F4A8E3B0E0E8E3F0E08081482F49
:100340008A81282F30E081E090E0022E02C0880FE1
:10035000991F0A94E2F7842B8C936CC0A8E3B0E059
:10036000E8E3F0E08081482F8A81282F30E081E0A7
:1003700090E0022E02C0880F991F0A94E2F7809540
:1003800084238C9357C08B818130A1F4A5E3B0E026
:10039000E5E3F0E08081482F8A81282F30E081E07A
:1003A00090E0022E02C0880F991F0A94E2F7842B76
:1003B0008C9340C0A5E3B0E0E5E3F0E08081482FF6
:1003C0008A81282F30E081E090E0022E02C0880F61
:1003D000991F0A94E2F7809584238C932BC08B811C
:1003E0008130A1F4A2E3B0E0E2E3F0E08081482FA5
:1003F0008A81282F30E081E090E0022E02C0880F31
:10040000991F0A94E2F7842B8C9314C0A2E3B0E006
:10041000E2E3F0E08081482F8A81282F30E081E0FC
:1004200090E0022E02C0880F991F0A94E2F780958F
:1004300084238C930F900F900F900F900F90CF917B
:10044000DF910895DF93CF9300D000D0CDB7DEB712
:1004500089836A838981843008F072C08A818830F8
:1004600008F06EC08981282F30E03C832B838B817C
:100470009C818130910549F12B813C8122303105ED
:100480002CF48B819C81009761F05AC02B813C81B8
:100490002230310571F18B819C8183309105E9F126
:1004A0004FC0ABE3B0E0EBE3F0E08081482F8A81FE
:1004B000282F30E081E090E0022E02C0880F991FC3
:1004C0000A94E2F784278C933BC0A8E3B0E0E8E30A
:1004D000F0E08081482F8A81282F30E081E090E091
:1004E000022E02C0880F991F0A94E2F784278C938A
:1004F00027C0A5E3B0E0E5E3F0E08081482F8A81E2
:10050000282F30E081E090E0022E02C0880F991F72
:100510000A94E2F784278C9313C0A2E3B0E0E2E3ED
:10052000F0E08081482F8A81282F30E081E090E040
:10053000022E02C0880F991F0A94E2F784278C9339
:100540000F900F900F900F90CF91DF910895DF9350
:10055000CF9300D000D000D0CDB7DEB789836A83B7
:100560005C834B838981843008F079C08A8188302C
:1005700008F075C08B819C81009709F470C0898157
:10058000282F30E03E832D834D815E81413051051F
:1005900059F18D819E818230910534F42D813E8107
:1005A0002115310569F05BC04D815E8142305105F6
:1005B00079F18D819E818330910509F43DC04FC052
:1005C000E9E3F0E08081282F30E08A81882F90E0F5
:1005D000A90102C0559547958A95E2F7CA01817035
:1005E000EB81FC8180833BC0E6E3F0E08081282F33
:1005F00030E08A81882F90E0A90102C05595479587
:100600008A95E2F7CA018170EB81FC81808327C063
:10061000E3E3F0E08081282F30E08A81882F90E0AA
:10062000A90102C0559547958A95E2F7CA018170E4
:10063000EB81FC81808313C0E0E3F0E08081282F10
:1006400030E08A81882F90E0A90102C05595479536
:100650008A95E2F7CA018170EB81FC81808326963E
:100660000FB6F894DEBF0FBECDBFCF91DF910895D6
:10067000DF93CF9300D000D0CDB7DEB789836A83F4
:100680008981843008F072C08A81883008F06EC099
:100690008981282F30E03C832B838B819C818130A2
:1006A000910549F12B813C81223031052CF48B815D
:1006B0009C81009761F05AC02B813C81223031052A
:1006C00071F18B819C8183309105E9F14FC0ABE3DF
:1006D000B0E0EBE3F0E08081482F8A81282F30E002
:1006E00081E090E0022E02C0880F991F0A94E2F781
:1006F000842B8C933BC0A8E3B0E0E8E3F0E080817A
:10070000482F8A81282F30E081E090E0022E02C03D
:10071000880F991F0A94E2F7842B8C9327C0A5E3D6
:10072000B0E0E5E3F0E08081482F8A81282F30E0B7
:1007300081E090E0022E02C0880F991F0A94E2F730
:10074000842B8C9313C0A2E3B0E0E2E3F0E080815D
:10075000482F8A81282F30E081E090E0022E02C0ED
:10076000880F991F0A94E2F7842B8C930F900F90B7
:100770000F900F90CF91DF910895DF93CF93CDB776
:10078000DEB72A970FB6F894DEBF0FBECDBF8983C0
:100790006A838981282F30E03A87298789859A855D
:1007A0008130910509F46DC029853A8522303105E3
:1007B00009F4C9C089859A85009709F0E9C08A8142
:1007C000282F30E038872F838F81988581309105DD
:1007D00021F12F813885223031052CF48F819885C5
:1007E000009761F046C02F8138852230310521F114
:1007F0008F8198858330910571F13BC0A5E5B0E00C
:10080000E5E5F0E0808181608C93A5E5B0E0E5E569
:10081000F0E0808182608C932CC0A5E5B0E0E5E536
:10082000F0E080818E7F8C93A5E5B0E0E5E5F0E017
:10083000808182608C931DC0A5E5B0E0E5E5F0E025
:1008400080818E7F8C93A5E5B0E0E5E5F0E08081C6
:100850008D7F8C930EC0A5E5B0E0E5E5F0E08081EA
:1008600081608C93A5E5B0E0E5E5F0E080818D7FC7
:100870008C93ABE5B0E0EBE5F0E0808180648C9395
:1008800087C08A81282F30E03E832D838D819E8111
:100890008130910521F12D813E81223031052CF4EA
:1008A0008D819E81009761F046C02D813E8122306E
:1008B000310521F18D819E818330910571F13BC01D
:1008C000A5E5B0E0E5E5F0E0808184608C93A5E5E6
:1008D000B0E0E5E5F0E0808188608C932CC0A5E570
:1008E000B0E0E5E5F0E080818B7F8C93A5E5B0E09A
:1008F000E5E5F0E0808188608C931DC0A5E5B0E05F
:10090000E5E5F0E080818B7F8C93A5E5B0E0E5E53F
:10091000F0E08081877F8C930EC0A5E5B0E0E5E52F
:10092000F0E0808184608C93A5E5B0E0E5E5F0E03F
:100930008081877F8C93ABE5B0E0EBE5F0E08081D0
:1009400080688C9325C08A81282F30E03C832B83DC
:100950008B819C81009731F02B813C8121303105C6
:1009600049F00FC0A4E5B0E0E4E5F0E080818064E8
:100970008C9307C0A4E5B0E0E4E5F0E080818F7BD4
:100980008C93ABE5B0E0EBE5F0E0808180628C9386
:100990002A960FB6F894DEBF0FBECDBFCF91DF9180
:1009A0000895DF93CF9300D00F92CDB7DEB7898340
:1009B0008981282F30E03B832A838A819B81813083
:1009C000910589F02A813B8122303105A1F08A818D
:1009D0009B810097B9F4ABE5B0E0EBE5F0E08081F6
:1009E0008F7B8C930FC0ABE5B0E0EBE5F0E080814E
:1009F0008F778C9307C0ABE5B0E0EBE5F0E080814A
:100A00008F7D8C930F900F900F90CF91DF91089571
:100A1000DF93CF9300D00F92CDB7DEB78983898162
:100A2000282F30E03B832A838A819B818230910585
:100A300081F02A813B8123303105B1F08A819B818D
:100A40008130910509F582E062E041E00E943001C9
:100A50002AC082E062E041E00E94300182E067E06B
:100A600041E00E9430011FC082E062E041E00E944C
:100A7000300182E067E041E00E94300181E063E004
:100A800041E00E9430010FC082E062E040E00E943D
:100A9000300182E067E040E00E94300181E063E0E5
:100AA00040E00E9430010F900F900F90CF91DF91A6
:100AB0000895DF93CF93CDB7DEB780E060E00E946A
:100AC000BD0381E060E00E94BD0382E062E041E09E
:100AD0000E943E0082E067E041E00E943E0081E02B
:100AE00063E041E00E943E007894FFCF1F920F9296
:100AF0000FB60F9211242F933F934F935F936F93F1
:100B00007F938F939F93AF93BF93EF93FF93DF9365
:100B1000CF93CDB7DEB7809160008F5F8093600088
:100B200080916000843010F010926000809160002D
:100B30000E940805CF91DF91FF91EF91BF91AF9196
:100B40009F918F917F916F915F914F913F912F91E5
:100B50000F900FBE0F901F9018951F920F920FB617
:100B60000F9211242F933F934F935F936F937F9333
:100B70008F939F93AF93BF93EF93FF93DF93CF93A5
:100B8000CDB7DEB780916000815080936000809186
:100B90006000823029F481E063E040E00E9430018F
:100BA00080916000813029F482E067E040E00E949B
:100BB000300180916000882329F482E062E040E007
:100BC0000E943001CF91DF91FF91EF91BF91AF91E2
:100BD0009F918F917F916F915F914F913F912F9155
:0E0BE0000F900FBE0F901F901895F894FFCF46
:00000001FF
