:100000000C942A000C943F000C943F000C943F0089
:100010000C943F000C943F000C943F000C943F0064
:100020000C943F000C943F000C943F000C943F0054
:100030000C943F000C943F000C943F000C943F0044
:100040000C943F000C943F000C943F000C943F0034
:100050000C943F0011241FBECFE5D8E0DEBFCDBF1A
:1000600010E0A0E6B0E0E8EDFAE002C005900D92E5
:10007000A037B107D9F70E94F1040C946A050C94DB
:100080000000DF93CF9300D000D00F92CDB7DEB742
:1000900089836A834B838981843008F0DCC08A813C
:1000A000883008F0D8C08B81813021F08B81882383
:1000B00009F0D1C08981282F30E03D832C838C81C9
:1000C0009D818130910509F443C02C813D8122300E
:1000D00031052CF48C819D81009771F0BCC02C817E
:1000E0003D812230310509F45FC08C819D818330D0
:1000F000910509F485C0AFC08B818130A1F4AAE3DA
:10010000B0E0EAE3F0E08081482F8A81282F30E0D8
:1001100081E090E0022E02C0880F991F0A94E2F756
:10012000842B8C9398C0AAE3B0E0EAE3F0E08081EE
:10013000482F8A81282F30E081E090E0022E02C013
:10014000880F991F0A94E2F7809584238C9383C0CB
:100150008B818130A1F4A7E3B0E0E7E3F0E0808198
:10016000482F8A81282F30E081E090E0022E02C0E3
:10017000880F991F0A94E2F7842B8C936CC0A7E335
:10018000B0E0E7E3F0E08081482F8A81282F30E05B
:1001900081E090E0022E02C0880F991F0A94E2F7D6
:1001A000809584238C9357C08B818130A1F4A4E384
:1001B000B0E0E4E3F0E08081482F8A81282F30E02E
:1001C00081E090E0022E02C0880F991F0A94E2F7A6
:1001D000842B8C9340C0A4E3B0E0E4E3F0E08081A2
:1001E000482F8A81282F30E081E090E0022E02C063
:1001F000880F991F0A94E2F7809584238C932BC073
:100200008B818130A1F4A1E3B0E0E1E3F0E08081F3
:10021000482F8A81282F30E081E090E0022E02C032
:10022000880F991F0A94E2F7842B8C9314C0A1E3E2
:10023000B0E0E1E3F0E08081482F8A81282F30E0B0
:1002400081E090E0022E02C0880F991F0A94E2F725
:10025000809584238C930F900F900F900F900F90A8
:10026000CF91DF910895DF93CF9300D000D00F920C
:10027000CDB7DEB789836A834B838981843008F0E8
:10028000DCC08A81883008F0D8C08B81813021F0B1
:100290008B81882309F0D1C08981282F30E03D83EC
:1002A0002C838C819D818130910509F443C02C8180
:1002B0003D81223031052CF48C819D81009771F0B5
:1002C000BCC02C813D812230310509F45FC08C8196
:1002D0009D818330910509F485C0AFC08B81813049
:1002E000A1F4ABE3B0E0EBE3F0E08081482F8A813A
:1002F000282F30E081E090E0022E02C0880F991F85
:100300000A94E2F7842B8C9398C0ABE3B0E0EBE364
:10031000F0E08081482F8A81282F30E081E090E052
:10032000022E02C0880F991F0A94E2F78095842359
:100330008C9383C08B818130A1F4A8E3B0E0E8E323
:10034000F0E08081482F8A81282F30E081E090E022
:10035000022E02C0880F991F0A94E2F7842B8C9317
:100360006CC0A8E3B0E0E8E3F0E08081482F8A8128
:10037000282F30E081E090E0022E02C0880F991F04
:100380000A94E2F7809584238C9357C08B81813047
:10039000A1F4A5E3B0E0E5E3F0E08081482F8A8195
:1003A000282F30E081E090E0022E02C0880F991FD4
:1003B0000A94E2F7842B8C9340C0A5E3B0E0E5E318
:1003C000F0E08081482F8A81282F30E081E090E0A2
:1003D000022E02C0880F991F0A94E2F780958423A9
:1003E0008C932BC08B818130A1F4A2E3B0E0E2E3D7
:1003F000F0E08081482F8A81282F30E081E090E072
:10040000022E02C0880F991F0A94E2F7842B8C9366
:1004100014C0A2E3B0E0E2E3F0E08081482F8A81DB
:10042000282F30E081E090E0022E02C0880F991F53
:100430000A94E2F7809584238C930F900F900F908D
:100440000F900F90CF91DF910895DF93CF9300D05D
:1004500000D0CDB7DEB789836A838981843008F004
:1004600072C08A81883008F06EC08981282F30E000
:100470003C832B838B819C818130910549F12B81B9
:100480003C81223031052CF48B819C81009761F0F6
:100490005AC02B813C812230310571F18B819C81C6
:1004A00083309105E9F14FC0ABE3B0E0EBE3F0E05E
:1004B0008081482F8A81282F30E081E090E0022E51
:1004C00002C0880F991F0A94E2F784278C933BC0DF
:1004D000A8E3B0E0E8E3F0E08081482F8A81282F8C
:1004E00030E081E090E0022E02C0880F991F0A944C
:1004F000E2F784278C9327C0A5E3B0E0E5E3F0E0C2
:100500008081482F8A81282F30E081E090E0022E00
:1005100002C0880F991F0A94E2F784278C9313C0B6
:10052000A2E3B0E0E2E3F0E08081482F8A81282F47
:1005300030E081E090E0022E02C0880F991F0A94FB
:10054000E2F784278C930F900F900F900F90CF912C
:10055000DF910895DF93CF9300D000D000D0CDB7C6
:10056000DEB789836A835C834B838981843008F09A
:1005700079C08A81883008F075C08B819C81009792
:1005800009F470C08981282F30E03E832D834D818E
:100590005E814130510559F18D819E8182309105F6
:1005A00034F42D813E812115310569F05BC04D8108
:1005B0005E814230510579F18D819E8183309105B4
:1005C00009F43DC04FC0E9E3F0E08081282F30E01E
:1005D0008A81882F90E0A90102C0559547958A9598
:1005E000E2F7CA018170EB81FC8180833BC0E6E3C6
:1005F000F0E08081282F30E08A81882F90E0A901E7
:1006000002C0559547958A95E2F7CA018170EB8142
:10061000FC81808327C0E3E3F0E08081282F30E075
:100620008A81882F90E0A90102C0559547958A9547
:10063000E2F7CA018170EB81FC81808313C0E0E3A3
:10064000F0E08081282F30E08A81882F90E0A90196
:1006500002C0559547958A95E2F7CA018170EB81F2
:10066000FC81808326960FB6F894DEBF0FBECDBF07
:10067000CF91DF910895DF93CF9300D000D0CDB715
:10068000DEB789836A838981843008F072C08A81E9
:10069000883008F06EC08981282F30E03C832B839E
:1006A0008B819C818130910549F12B813C812230E5
:1006B00031052CF48B819C81009761F05AC02B810D
:1006C0003C812230310571F18B819C818330910511
:1006D000E9F14FC0ABE3B0E0EBE3F0E08081482FFD
:1006E0008A81282F30E081E090E0022E02C0880F3E
:1006F000991F0A94E2F7842B8C933BC0A8E3B0E0E7
:10070000E8E3F0E08081482F8A81282F30E081E003
:1007100090E0022E02C0880F991F0A94E2F7842B02
:100720008C9327C0A5E3B0E0E5E3F0E08081482F9B
:100730008A81282F30E081E090E0022E02C0880FED
:10074000991F0A94E2F7842B8C9313C0A2E3B0E0C4
:10075000E2E3F0E08081482F8A81282F30E081E0B9
:1007600090E0022E02C0880F991F0A94E2F7842BB2
:100770008C930F900F900F900F90CF91DF91089571
:10078000DF93CF93CDB7DEB782E063E040E00E9415
:10079000410082E064E040E00E94410082E065E0C8
:1007A00040E00E94410082E066E040E00E9441009B
:1007B00080E064E041E00E94410080E065E041E0CB
:1007C0000E94410080E066E041E00E94410080E03C
:1007D00067E041E00E94410082E063E00E943B0349
:1007E00082E064E00E943B0382E065E00E943B03FC
:1007F00082E066E00E943B03CF91DF910895DF9392
:10080000CF93CDB7DEB7AB970FB6F894DEBF0FBE70
:10081000CDBF9EA38DA38DA19EA1009709F4D8C042
:10082000EDA1FEA18FEF808384E08C8385E08D8332
:1008300086E08E8387E08F83188619861A861B864A
:1008400083E08C8784E08D8785E08E8786E08F87C4
:1008500082E0888B82E0898B82E08A8B82E08B8BBE
:10086000CE01449698A78FA3E0E6F0E0FAA7E9A7A7
:10087000F0E1FBA7E9A5FAA5008089A59AA5019654
:100880009AA789A7EFA1F8A500828FA198A5019644
:1008900098A78FA39BA591509BA7EBA5EE2351F79B
:1008A00019821B8291C08B81282F30E0CE010896DF
:1008B000FC01E20FF31F40818B81282F30E0CE0135
:1008C0000496FC01E20FF31F9081842F692F40E012
:1008D0000E9433011A8257C08A81282F30E0CE014E
:1008E0004096FC01E20FF31F40818A81282F30E0FF
:1008F000CE010C96FC01E20FF31F90819E012C5D4E
:100900003F4F842F692FA9010E94AA028CA188233E
:10091000B9F51AC08A81282F30E0CE014096FC013B
:10092000E20FF31F40818A81282F30E0CE010C9620
:10093000FC01E20FF31F90819E012C5D3F4F842F3D
:10094000692FA9010E94AA028CA1882319F38A8128
:10095000282F30E08B81482F50E0220F331F220FC9
:10096000331FCE010196820F931F840F951FFC0148
:1009700073968081EDA1FEA1808381E0898307C009
:100980008A818F5F8A838A81843008F4A5CF898128
:100990008130F1F08B81282F30E0CE010896FC01E8
:1009A000E20FF31F40818B81282F30E0CE010496A7
:1009B000FC01E20FF31F9081842F692F41E00E9418
:1009C00033018B818F5F8B838B81843008F46BCFF5
:1009D000AB960FB6F894DEBF0FBECDBFCF91DF91BF
:1009E0000895DF93CF930F92CDB7DEB782E062E038
:1009F00041E00E94410082E067E041E00E94410046
:100A000083E063E041E00E9441000E94C003CE0108
:100A100001960E94FF0389818F3FC9F3898180334A
:100A200081F482E062E041E00E94330182E067E00D
:100A300040E00E94330183E063E040E00E94330124
:100A4000E6CF8981813381F482E062E040E00E9458
:100A5000330182E067E041E00E94330183E063E01C
:100A600040E00E943301D3CF8981823381F482E058
:100A700062E040E00E94330182E067E040E00E94D3
:100A8000330183E063E041E00E943301C0CF8981FC
:100A9000833381F482E062E041E00E94330182E02E
:100AA00067E041E00E94330183E063E041E00E949F
:100AB0003301ADCF82E062E040E00E94330182E08A
:100AC00067E040E00E94330183E063E040E00E9481
:080AD00033019DCFF894FFCF24
:100AD8003132334134353642373839432A302344AA
:00000001FF
