:100000000C942A000C943C000C943C000C943C0092
:100010000C94F8040C943C000C943C000C943C00B0
:100020000C943C000C943C000C943C000C943C0060
:100030000C943C000C943C000C943C000C943C0050
:100040000C943C000C943C000C943C000C943C0040
:100050000C943C0011241FBECFE5D8E0DEBFCDBF1D
:1000600010E0A0E6B0E001C01D92A437B107E1F7AF
:100070000E942B050C94AA050C940000DF93CF93EB
:1000800000D000D00F92CDB7DEB789836A834B834F
:100090008981843008F0DCC08A81883008F0D8C0BB
:1000A0008B81813021F08B81882309F0D1C0898137
:1000B000282F30E03D832C838C819D8181309105F8
:1000C00009F443C02C813D81223031052CF48C8110
:1000D0009D81009771F0BCC02C813D81223031059B
:1000E00009F45FC08C819D818330910509F485C03E
:1000F000AFC08B818130A1F4AAE3B0E0EAE3F0E085
:100100008081482F8A81282F30E081E090E0022E04
:1001100002C0880F991F0A94E2F7842B8C9398C031
:10012000AAE3B0E0EAE3F0E08081482F8A81282F3B
:1001300030E081E090E0022E02C0880F991F0A94FF
:10014000E2F7809584238C9383C08B818130A1F466
:10015000A7E3B0E0E7E3F0E08081482F8A81282F11
:1001600030E081E090E0022E02C0880F991F0A94CF
:10017000E2F7842B8C936CC0A7E3B0E0E7E3F0E0F8
:100180008081482F8A81282F30E081E090E0022E84
:1001900002C0880F991F0A94E2F7809584238C93FC
:1001A00057C08B818130A1F4A4E3B0E0E4E3F0E038
:1001B0008081482F8A81282F30E081E090E0022E54
:1001C00002C0880F991F0A94E2F7842B8C9340C0D9
:1001D000A4E3B0E0E4E3F0E08081482F8A81282F97
:1001E00030E081E090E0022E02C0880F991F0A944F
:1001F000E2F7809584238C932BC08B818130A1F40E
:10020000A1E3B0E0E1E3F0E08081482F8A81282F6C
:1002100030E081E090E0022E02C0880F991F0A941E
:10022000E2F7842B8C9314C0A1E3B0E0E1E3F0E0AB
:100230008081482F8A81282F30E081E090E0022ED3
:1002400002C0880F991F0A94E2F7809584238C934B
:100250000F900F900F900F900F90CF91DF91089516
:10026000DF93CF9300D000D00F92CDB7DEB7898354
:100270006A834B838981843008F0DCC08A818830AE
:1002800008F0D8C08B81813021F08B81882309F060
:10029000D1C08981282F30E03D832C838C819D81C2
:1002A0008130910509F443C02C813D812230310514
:1002B0002CF48C819D81009771F0BCC02C813D8114
:1002C0002230310509F45FC08C819D818330910516
:1002D00009F485C0AFC08B818130A1F4ABE3B0E0FD
:1002E000EBE3F0E08081482F8A81282F30E081E025
:1002F00090E0022E02C0880F991F0A94E2F7842B27
:100300008C9398C0ABE3B0E0EBE3F0E08081482F42
:100310008A81282F30E081E090E0022E02C0880F11
:10032000991F0A94E2F7809584238C9383C08B8174
:100330008130A1F4A8E3B0E0E8E3F0E08081482F49
:100340008A81282F30E081E090E0022E02C0880FE1
:10035000991F0A94E2F7842B8C936CC0A8E3B0E059
:10036000E8E3F0E08081482F8A81282F30E081E0A7
:1003700090E0022E02C0880F991F0A94E2F7809540
:1003800084238C9357C08B818130A1F4A5E3B0E026
:10039000E5E3F0E08081482F8A81282F30E081E07A
:1003A00090E0022E02C0880F991F0A94E2F7842B76
:1003B0008C9340C0A5E3B0E0E5E3F0E08081482FF6
:1003C0008A81282F30E081E090E0022E02C0880F61
:1003D000991F0A94E2F7809584238C932BC08B811C
:1003E0008130A1F4A2E3B0E0E2E3F0E08081482FA5
:1003F0008A81282F30E081E090E0022E02C0880F31
:10040000991F0A94E2F7842B8C9314C0A2E3B0E006
:10041000E2E3F0E08081482F8A81282F30E081E0FC
:1004200090E0022E02C0880F991F0A94E2F780958F
:1004300084238C930F900F900F900F900F90CF917B
:10044000DF910895DF93CF9300D000D0CDB7DEB712
:1004500089836A838981843008F072C08A818830F8
:1004600008F06EC08981282F30E03C832B838B817C
:100470009C818130910549F12B813C8122303105ED
:100480002CF48B819C81009761F05AC02B813C81B8
:100490002230310571F18B819C8183309105E9F126
:1004A0004FC0ABE3B0E0EBE3F0E08081482F8A81FE
:1004B000282F30E081E090E0022E02C0880F991FC3
:1004C0000A94E2F784278C933BC0A8E3B0E0E8E30A
:1004D000F0E08081482F8A81282F30E081E090E091
:1004E000022E02C0880F991F0A94E2F784278C938A
:1004F00027C0A5E3B0E0E5E3F0E08081482F8A81E2
:10050000282F30E081E090E0022E02C0880F991F72
:100510000A94E2F784278C9313C0A2E3B0E0E2E3ED
:10052000F0E08081482F8A81282F30E081E090E040
:10053000022E02C0880F991F0A94E2F784278C9339
:100540000F900F900F900F90CF91DF910895DF9350
:10055000CF9300D000D000D0CDB7DEB789836A83B7
:100560005C834B838981843008F079C08A8188302C
:1005700008F075C08B819C81009709F470C0898157
:10058000282F30E03E832D834D815E81413051051F
:1005900059F18D819E818230910534F42D813E8107
:1005A0002115310569F05BC04D815E8142305105F6
:1005B00079F18D819E818330910509F43DC04FC052
:1005C000E9E3F0E08081282F30E08A81882F90E0F5
:1005D000A90102C0559547958A95E2F7CA01817035
:1005E000EB81FC8180833BC0E6E3F0E08081282F33
:1005F00030E08A81882F90E0A90102C05595479587
:100600008A95E2F7CA018170EB81FC81808327C063
:10061000E3E3F0E08081282F30E08A81882F90E0AA
:10062000A90102C0559547958A95E2F7CA018170E4
:10063000EB81FC81808313C0E0E3F0E08081282F10
:1006400030E08A81882F90E0A90102C05595479536
:100650008A95E2F7CA018170EB81FC81808326963E
:100660000FB6F894DEBF0FBECDBFCF91DF910895D6
:10067000DF93CF9300D000D0CDB7DEB789836A83F4
:100680008981843008F072C08A81883008F06EC099
:100690008981282F30E03C832B838B819C818130A2
:1006A000910549F12B813C81223031052CF48B815D
:1006B0009C81009761F05AC02B813C81223031052A
:1006C00071F18B819C8183309105E9F14FC0ABE3DF
:1006D000B0E0EBE3F0E08081482F8A81282F30E002
:1006E00081E090E0022E02C0880F991F0A94E2F781
:1006F000842B8C933BC0A8E3B0E0E8E3F0E080817A
:10070000482F8A81282F30E081E090E0022E02C03D
:10071000880F991F0A94E2F7842B8C9327C0A5E3D6
:10072000B0E0E5E3F0E08081482F8A81282F30E0B7
:1007300081E090E0022E02C0880F991F0A94E2F730
:10074000842B8C9313C0A2E3B0E0E2E3F0E080815D
:10075000482F8A81282F30E081E090E0022E02C0ED
:10076000880F991F0A94E2F7842B8C930F900F90B7
:100770000F900F90CF91DF910895DF93CF93CDB776
:10078000DEB7AFE5B0E0EFE5F0E0808180688C9304
:10079000CF91DF910895DF93CF93CDB7DEB7AFE56B
:1007A000B0E0EFE5F0E080818F778C93CF91DF911F
:1007B0000895DF93CF93CDB7DEB70E94BD030E94AB
:1007C000800489EF0E94D40483E394E00E94E20451
:1007D0000E949C04CF91DF910895DF93CF9300D0C6
:1007E00000D00F92CDB7DEB789837B836A835D83A8
:1007F0004C838981843078F58C819D81009759F1F3
:100800008981882F90E0880F991F880F991FFC011C
:10081000EE59FF4F808191810097E9F48981882FFB
:1008200090E0880F991F880F991FFC01EE59FF4F28
:100830008C819D81918380838981882F90E0880FAE
:10084000991F0196880F991FFC01EE59FF4F8A816D
:100850009B81918380830F900F900F900F900F904A
:10086000CF91DF910895DF93CF930F92CDB7DEB78D
:100870008091600090916100019690936100809357
:100880006000198236C040916000509161008981FA
:10089000882F90E0880F991F0196880F991FFC01FF
:1008A000EE59FF4F20813181CA01B9010E9496059E
:1008B0000097E1F48981882F90E0880F991F880FB5
:1008C000991FFC01EE59FF4F80819181009771F0D3
:1008D0008981882F90E0880F991F880F991FFC014C
:1008E000EE59FF4F0190F081E02D099589818F5FCE
:1008F00089838981843038F20F90CF91DF910895F8
:10090000DF93CF93CDB7DEB7A5E4B0E0E5E4F0E048
:1009100080818F7B8C93A5E4B0E0E5E4F0E08081FA
:1009200088608C93A9E5B0E0E9E5F0E0808180681B
:100930008C93CF91DF910895DF93CF93CDB7DEB73E
:10094000A5E4B0E0E5E4F0E0808181608C93A5E46B
:10095000B0E0E5E4F0E0808182608C93A5E4B0E053
:10096000E5E4F0E080818B7F8C93CF91DF91089557
:10097000DF93CF93CDB7DEB7A5E4B0E0E5E4F0E0D8
:1009800080818E7F8C93A5E4B0E0E5E4F0E0808187
:100990008D7F8C93A5E4B0E0E5E4F0E080818B7F6F
:1009A0008C93CF91DF910895DF93CF930F92CDB7C2
:1009B000DEB78983E3E4F0E0898180830F90CF91F3
:1009C000DF910895DF93CF9300D0CDB7DEB79A8340
:1009D000898389819A81009731F089819A819093E6
:1009E0007300809372000F900F90CF91DF91089564
:1009F0001F920F920FB60F9211242F933F934F9394
:100A00005F936F937F938F939F93AF93BF93EF9376
:100A1000FF93DF93CF93CDB7DEB7809172009091B3
:100A20007300009729F0E0917200F091730009952E
:100A3000CF91DF91FF91EF91BF91AF919F918F91F6
:100A40007F916F915F914F913F912F910F900FBECA
:100A50000F901F901895DF93CF93CDB7DEB783E04B
:100A600063E041E00E943E0082E062E041E00E94DB
:100A70003E0082E067E041E00E943E0080E063E0EB
:100A800041E00E943E002AE635E080E090E064EF1D
:100A900071E0A9010E94ED0325E735E081E090E0D7
:100AA00068EE73E0A9010E94ED0320E835E082E0E2
:100AB00090E06CED75E0A9010E94ED032BE835E0B4
:100AC00083E090E06CEB72E0A9010E94ED030E94CC
:100AD000D903FFCFDF93CF93CDB7DEB783E063E0D9
:100AE0000E942202CF91DF910895DF93CF93CDB77B
:100AF000DEB782E062E00E942202CF91DF9108958A
:100B0000DF93CF93CDB7DEB782E067E00E94220289
:100B1000CF91DF910895DF93CF93CDB7DEB780E01B
:100B200063E00E942202CF91DF910895AA1BBB1BB4
:100B300051E107C0AA1FBB1FA617B70710F0A61BDD
:100B4000B70B881F991F5A95A9F780959095BC01FE
:080B5000CD010895F894FFCFD8
:00000001FF
